:020000040800F2
:10000000805800249D03000869460008094500083F
:100010006146000821060008096100080000000090
:10002000000000000000000000000000414900083E
:10003000290600080000000081460008D149000898
:10004000BB030008BB030008BB030008BB03000898
:10005000BB030008BB030008BB030008BB03000888
:10006000BB030008BB030008BB030008BB03000878
:10007000BB030008BB030008BB030008BB03000868
:10008000BB030008BB030008BB030008BB03000858
:10009000BB030008BB030008BB030008BB03000848
:1000A000BB030008BB030008BB030008BB03000838
:1000B000BB030008BB030008BB030008BB03000828
:1000C000BB030008BB030008BB030008BB03000818
:1000D000BB030008BB030008BB030008BB03000808
:1000E000BB030008BB03000800000000BB030008BE
:1000F000BB030008BB030008BB030008BB030008E8
:10010000BB030008BB030008BB030008BB030008D7
:10011000BB030008BB030008894B0008BB030008B1
:10012000BB030008BB030008BB030008BB030008B7
:10013000BB030008BB030008BB030008BB030008A7
:1001400000000000000000000000000000000000AF
:10015000BB030008BB030008BB030008BB03000887
:10016000BB030008BB030008BB030008BB03000877
:10017000BB03000871460008BB0300080000000034
:10018000BB030008BB030008BB030008BB03000857
:10019000BB030008BB030008BB030008BB03000847
:1001A000BB030008BB030008BB03000800000000FD
:1001B000BB030008BB030008BB030008BB03000827
:1001C000BB030008BB0300080000000000000000A3
:1001D0000000000000000000BB0300080000000059
:1001E000000000000000000000000000000000000F
:1001F0000000000000000000BB030008BB03000873
:10020000BB030008BB03000800000000BB0300089C
:10021000BB030008BB030008BB030008BB030008C6
:10022000BB03000800000000BB0300080000000042
:10023000BB030008BB03000800000000BB0300086C
:10024000BB030008BB030008BB030008BB03000896
:10025000BB030008BB030008BB030008BB03000886
:10026000BB030008BB030008BB030008BB03000876
:10027000BB030008BB030008BB030008000000002C
:10028000BB030008BB030008BB030008BB03000856
:1002900000000000BB030008BB03000800000000D2
:1002A00000000000BB030008BB030008BB030008FC
:1002B000BB030008BB030008BB03000831070008AC
:1002C00041070008BB030008BB03000800F002F868
:1002D00000F054F814A696E8000CB244B344DA4592
:1002E00001D100F04BF8BAE80F000FA696E83000F5
:1002F000A5EB040504EB0607AAEB0704A7F1010729
:100300004FEA15154FEA3414A4F10104AC4201D3AD
:1003100000F034F813F0010F18BFFB1A43F001038B
:1003200000F001F8DBE71847BC8D0000DC8D000011
:10033000103A24BF78C878C1FAD8520724BF30C811
:1003400030C144BF04680C60704700007047000073
:100350000023002400250026103A28BF78C1FBD8CE
:10036000520728BF30C148BF0B6070471FB508F067
:1003700009FE00F0D1F81FBD10B510BD00F014F952
:100380001146FFF7F3FF06F04BFA00F032F903B421
:10039000FFF7F2FF03BC00F03BF900000A4880477A
:1003A0000A4880470A480047FEE7FEE7FEE7FEE707
:1003B000FEE7FEE7FEE7FEE7FEE7FEE70548064943
:1003C000064A074B7047000001070008B14A0008C1
:1003D000CD0200088052002480580024805400245C
:1003E00080540024032A40F2308010F0030C00F007
:1003F000158011F8013BBCF1020F624498BF11F85F
:1004000001CB00F8013B38BF11F8013BA2F1040217
:1004100098BF00F801CB38BF00F8013B11F003038F
:1004200000F09080083AC0F0088051F8043B083A88
:1004300051F804CBA0E80810F5E7121D5CBF51F895
:10044000043B40F8043BAFF30080D20724BF11F80F
:10045000013B11F801CB48BF11F8012B24BF00F874
:10046000013B00F801CB48BF00F8012B704702F0B8
:10047000FF0343EA032242EA024200F024B84FF0AD
:1004800000020429C0F0128010F0030C00F01B8061
:10049000CCF1040CBCF1020F18BF00F8012BA8BF6F
:1004A00020F8022BA1EB0C0100F00DB85FEAC17C33
:1004B00024BF00F8012B00F8012B48BF00F8012BE6
:1004C00070474FF0000200B5134694469646203917
:1004D00022BFA0E80C50A0E80C50B1F12001BFF4FD
:1004E000F7AF090728BFA0E80C5048BF0CC05DF863
:1004F00004EB890028BF40F8042B08BF704748BFB1
:1005000020F8022B11F0804F18BF00F8012B704724
:10051000704770477047000008487CB578440090E9
:1005200007487844009C0546019004E02046016895
:1005300008448047241DAC42F8D17CBDE48B000008
:10054000E28B000010B5203AC0F00B80B1E81850E3
:10055000A0E81850B1E81850A0E81850203ABFF4AD
:10056000F5AF5FEA027C24BFB1E81850A0E818504C
:1005700044BF18C918C0BDE810405FEA827C24BFA0
:1005800051F8043B40F8043B08BF7047D20728BF2E
:1005900031F8023B48BF11F8012B28BF20F8023B7D
:1005A00048BF00F8012B7047754600F02BF8AE46A7
:1005B00005006946534620F00700854618B020B56F
:1005C000FFF7FCFEBDE820404FF000064FF00007AB
:1005D0004FF000084FF0000BAC46ACE8C009ACE8A7
:1005E000C009ACE8C009ACE8C00921F007018D469C
:1005F000704710B50446AFF300802046BDE81040B8
:10060000FFF7C5BE0048704718000024704700007F
:1006100001491820ABBEFEE72600020000000000E2
:10062000FEE700000000000070470000000000002E
:1006300072B600BFFEE7000040F2D47840F63809F9
:1006400040F69C0B40F6001740F6641440F6C815BF
:10065000C2F20048C2F20049C2F2004BC2F20047A7
:10066000C2F20044C2F20045032002214FF0FF32E3
:1006700006F072F9C10703D14FF0000A2CE000BF69
:1006800040F280010646C2F200410968084606F0C1
:10069000BFFA3046FD210646404605F0EDFFFD213C
:1006A000484605F0E9FFFD21584605F0E5FFFD212C
:1006B000384605F0E1FF01204FF0010A06F0D4F8BA
:1006C000FD21204605F0D8FFFD21284605F0D4FF86
:1006D000012006F0C9F83046032801D101F0A0FC42
:1006E0005FEACA70C0D003E0032801D101F098FC92
:1006F00003200221002206F02FF9C107F4D0C9E738
:1007000044F60400C5F60200816841F002018160F0
:100710000168890409D4016889045CBF01685FEA43
:10072000814102D401688904F2D5704700000000BD
:1007300040F20420C2F2004000F00EBB00000000B6
:1007400040F20420C2F2004000F006BB00000000AE
:1007500090F89830013B012B0ED80068836D0B4256
:1007600012D0836D0B408B4232D1C36D43F0020334
:10077000C3658B050ED412E000F19C01012002221A
:100780000B681A430A607047C36D43F00103C365E9
:100790008B0504D5D0F8E0301343C0F8E0304B05AA
:1007A00004D5D0F8E4301A43C0F8E4204FF6FF72C5
:1007B000436DC3F6CF720A401A4342658A0F4AF668
:1007C00014010020C4F200010B681A430A6070474C
:1007D0000323C3658B05DDD4E1E7000000000000C2
:1007E00090F89830022B1BD12DE9F0430668D6F81B
:1007F000C03013F07C5F1BD0D6F8C4309B0221D4EC
:10080000D6F8C4300C69C3F3044CD1E90035002D8F
:100810008D6821D023432B4343F0804E20E000BF5E
:10082000D0F89C1041F00801C0F89C1001207047DE
:10083000D0F89C1041F02001C0F89C100120BDE8C8
:10084000F08300BFD0F89C1041F40071C0F89C10F8
:100850000120BDE8F08300BF44EA834343EA050E6C
:10086000836ED0F88450D1E907970CFB03F48B69B1
:1008700049EA0767D1F81480D1F80C901F4305EBC3
:10088000840347EA080745F824E047EA09475F6020
:10089000CF6887B149F26805083303320024C0F6F7
:1008A000000500BF171957F8037C1F51CF680434A7
:1008B000EF5DBC42F6D3012101FA0CF1C6F8D0106D
:1008C000C0F894100020BDE8F08300000000000094
:1008D000704700000000000090F89830012B0FD105
:1008E000012900684FEA026212D0D9B9D0F8F0109D
:1008F00021F07C511143C0F8F0100020704700BF78
:10090000D0F89C1041F00401C0F89C100120704701
:10091000D0F8A01021F0FE411143C0F8A010002033
:10092000704700BFD0F8B01021F0FE411143C0F86D
:10093000B01000207047000090F89820013A012A7A
:100940000CD880B50A68002ACA680FD00B69072A3C
:1009500043EA427E18D18B691BE000BFD0F89C109F
:1009600041F00201C0F89C1001207047072A19D1FC
:100970000A69D1E906C3120442EA032242EA0C02E0
:1009800042F0605218E000BFD1F808C04B6943EA5A
:100990008C73006F496800EBC10240F831E053608E
:1009A000002080BD8B68D1E904CE9B0743EAC26278
:1009B00042EA0C4242EA0E024968C06E40F8212029
:1009C000002080BD0000000090F898C0BCF1010F2D
:1009D0000ED19200006842EA0111DDF800C041EA40
:1009E000430141EA0C01C0F880100020704700BFAD
:1009F000D0F89C1041F00401C0F89C100120704711
:100A000090F89820012A07D10068426922F0FF027D
:100A10001143416100207047D0F89C1041F004015F
:100A2000C0F89C100120704790B110B5044600F04A
:100A300013FE2068C16D21F00301C165204600F05E
:100A400027FD0020C4F89C0084F8980010BD00BF6A
:100A50000120704700000000704700000000000007
:100A6000F0B58FB040F25C17C2F200473A6890428E
:100A700002D00FB0F0BD00BF6D460C460021064607
:100A8000CDE90D11CDE90B112C212846FFF719FDF9
:100A90000BA9304600F020F83046294600F02CF82B
:100AA0003046C7E9176400F013F8009978660B9890
:100AB000B9660C99C7E91B0197F858000599796741
:100AC000013087F858000FB0F0BD000000000000B2
:100AD000D0F89C00704700000068026CD0B208603B
:100AE000C2F30623C2F3C030C1E90130C2F30742AA
:100AF0000020CA60704700000068426C02F00700E6
:100B00000860C2F302204860C2F3803302F018008C
:100B10008860C2F34010C860C2F380100861C2F35D
:100B2000C0104861C2F3C0208861C2F30030C861C0
:100B3000C2F34030C1E90803C2F3064200208A62D2
:100B400070470000000000002DE9F04390F8987015
:100B5000022F17D140291FD10468274657F8A06FEC
:100B600016F4FE0F3AD0D4F8A460760640D0D4F83C
:100B7000A460D4F8A450ED01C6F3052E42D4442558
:100B8000742656E0D0F89C1041F00801C0F89C1083
:100B90000120BDE8F08300BF412915D10668374622
:100BA00057F8B05F15F4FE0F18D0D6F8B4506D06A4
:100BB0001ED0D6F8B450D6F8B460F601C5F3052EB1
:100BC0002AD44C25782634E0076DB94206D24FF07E
:100BD000000C54257C268E462CE000BFD0F89C10DB
:100BE00041F02001C0F89C100120BDE8F08300BF57
:100BF000D0F89C1041F48071C0F89C100120BDE831
:100C0000F08300BF3E684425B6F1FF3F4FF0740605
:100C1000F4460FDC08E000BF3E684C25B6F1FF3F0C
:100C20004FF07806F44605DC0EF101043F6804EA53
:100C3000174EF446445985590EFB04F405EB840E17
:100C400055F8247017F08047576055F8247027F046
:100C5000604608BFC7F38A46166055F8247007F04F
:100C60000057976055F8244004F000441461BEF822
:100C70000440D461BEF8064014F00F04D460DEF8DE
:100C8000044004F480145461DEF8044004F40014B9
:100C900094619EF8074004F07F041462DEF804407B
:100CA0004FEAD474546228D049F268080026C0F68E
:100CB00000080EEB0604751C277A9F55D76818F8B4
:100CC0000770BD4219D29F19657A7D70D56818F8F2
:100CD0000590B51C4D453FBFA57ABD70D56818F885
:100CE00005903CBFF51C4D4507D2E47A0436FC70F4
:100CF000D46818F80440A642DBD3402906D1006826
:100D0000C0F8A8C00020BDE8F08300BF412905D18C
:100D10000068C0F8B8C00020BDE8F0831F2909D8DA
:100D20000068012202FA01F1C0F898100020BDE825
:100D3000F08300BF006801F01F01012202FA01F1F7
:100D4000C0F89C100020BDE8F08300000000000007
:100D500070470000000000002DE9F04F87B0044606
:100D60004AF61000C4F2000001684AF61400C4F20A
:100D70000000026820680A40D0F850B0D0F85490C3
:100D8000056D466D036D0293436D0193036D0693EC
:100D9000436D0593036D0493436D0393D0F854A002
:100DA000D0F850805FEACA5311D518F480710ED084
:100DB0004FF4807101654AF610010020C4F2000171
:100DC000174608602046FFF7C3FF3A4620685FEAEF
:100DD0004A510BEA090B4FEA827740F14B814AF600
:100DE000100918F48061C4F2000910D0D0F8DC10AA
:100DF0000092D0F8E42011404FF480620265002098
:100E0000C9F80000204600F003FE009A206805EAB9
:100E100006050BF4704657B10021016502F003008E
:100E2000C9F8000020463946FFF752FD2068DDE989
:100E3000012101EA020705F00F0546B10665002011
:100E4000C9F800002046314600F0EAFD206807F0AE
:100E5000F00645B105650020C9F800002046294686
:100E600000F0AEFB206846B106650020C9F800001E
:100E70002046314600F0D0FB20685FEA0A510CD5CD
:100E800018F4006109D04FF4006101650020C9F831
:100E90000000204600F0C8FD20685FEA8A5111D5A5
:100EA00018F400710ED0D0F8D810D0F8E02011401E
:100EB0004FF4007202650020C9F80000204600F0DF
:100EC000ABFD20685FEA0A310CD518F4002109D087
:100ED0004FF4002101650020C9F80000204600F011
:100EE0006BFB20685FEACA310CD518F4803109D059
:100EF0004FF4803101650020C9F80000204600F061
:100F000083FD20685FEA4A31DDE9032101EA020539
:100F10000CD518F4802109D04FF480210165002000
:100F2000C9F80000204600F06BFD20685FEA8A31B6
:100F3000DDE9052102EA010205F060710ED518F421
:100F400000330BD04FF4003303650023C9F80030A1
:100F5000D4F89C3043F08003C4F89C3002F0715503
:100F600039B101650020C9F800002046FFF778FD7F
:100F7000206845B105650021C9F80010D4F89C101F
:100F80002943C4F89C10A9F5016188420AD0D4F81D
:100F90009C0000286AD0204607B0BDE8F04FFFF75C
:100FA0005BBD00BF606881688907F0D0016A426A52
:100FB000036A476A114003EA070202F03005D0F8DD
:100FC0002080D0F82490D0F820B0466A026A0692B9
:100FD00011F00F01426A0592D0F824A0026A04922F
:100FE00003D00162204600F0FFFC08EA09072DB19A
:100FF000606829460562204600F0FEFC5FEA4A6010
:1010000006EA0B0607F4C0750ED5049810F04000F0
:101010000AD060684023C16BC26B090C02F03F022A
:101020000362204600F0E4FCDDE9051000EA010758
:1010300006F4FC462DB1606829460562204600F0A2
:10104000CFFC07F4F02036B161680E62D4F89C1032
:101050003143C4F89C10002899D061680862D4F824
:101060009C100843C4F89C0091E700BF07B0BDE89E
:10107000F08F00BF4AF61009C4F20009002F05EAFC
:1010800006050BF470467FF4C7AED0E60000000002
:10109000F0B12DE9F04F83B04AF200080446C4F2E3
:1010A00000080068404533D094F89810B9B38169BE
:1010B00021F01001816100F03FFE05462068816942
:1010C000090707D500F038FE401B0B28F6D312E0C5
:1010D00001207047816941F00101816100F02CFE1F
:1010E000054600BF20688169C90721D100F024FEB0
:1010F000401B0B28F6D30120D4F89C100843C4F8F9
:101100009C00032084F89800012003B0BDE8F08F14
:1011100008F58071616094F898100029C7D100200B
:1011200084F89900204600F0D7F92068BFE700BF97
:10113000816941F002018161217C826922F04002D3
:10114000012918BF40328261617C826922F48042A9
:10115000012908BF02F580428261A17C826922F4E4
:101160008052012918BF02F580528261816921F401
:101170004073D4E902120B438361836923F0A40313
:101180008361036923F0100303619AB1012A0DD032
:10119000022A09D08369032A43F08003836103692B
:1011A00043F01002026105D1202200E0042283698D
:1011B0001A438261D4E90572E369561E6FF0FF029B
:1011C000256A02EB0323B1F5407F43EA4663A5F1AC
:1011D000010646EA030640F20003CFF6FF7303EB75
:1011E000074746EA0701C16110D1D4E90B65D4E98C
:1011F0000917013F02EB06226FF00F063A4306EB98
:1012000005173A4303EB01411143C160236E2BB133
:10121000616ED0F8C0201143C0F8C010E16DCDE977
:101220000113D94248F6A071C0F6000109D0D0F8E8
:10123000C820A36E22F0070251F823301A43C0F8E9
:10124000C820D4F840C0BCF1000F09D0D0F8BC20B1
:10125000636C22F0070251F823301A43C0F8BC2017
:10126000D4F848B0BBF1000F0AD0D0F8BC20E36C32
:1012700022F0700251F8233042EA0312C0F8BC2079
:10128000D4F850A0BAF1000F0AD0D0F8BC20636D9A
:1012900022F4E06251F8231042EA0121C0F8BC10A8
:1012A000404504D161688A6822F003028A60002107
:1012B000C4F89410C4F89C10012184F8981004F12B
:1012C0003409D0F884104FF6FC729143656C99E8AC
:1012D0000C02009541EA8201C0F88410D0F8841015
:1012E00021F47F0141EA0341C0F884109918D0F835
:1012F00088306FF38F0343EA8103C0F88830D0F859
:10130000883023F4FE0343EA0943C0F8883001EB38
:101310004903D0F8A0606FF38F0646EA8306C0F851
:10132000A060D0F8A06026F4FE0646EA0C46C0F89D
:10133000A06005FB0C36D0F8B0306FF38F0343EAA2
:101340008603C0F8B030D0F8B03023F4FE0343EA8F
:101350000B43C0F8B030E36CD0F8AC506FF38F059E
:1013600003FB0B6645EA8605C0F8AC50D4F8548000
:1013700008FB0A65D0F8F0606FF38F0646EA850631
:10138000C0F8F060D0F8F0E0A66D2EF47C1747EAC4
:101390000647C0F8F070F70007EB8507D0F8C0509B
:1013A0006FF38F052F43C0F8C070D0F8C070009D58
:1013B000DDF804E027F47C1705FB0CFC4AF200057D
:1013C00047EA0E47C0F8C070C4F2000503FB0BC328
:1013D00005F54067D0F8C05007EB820207EB8101AA
:1013E00025F07C57029D47EA0567C0F8C07001EB05
:1013F000C90008FB0A372167A16E00EB8C0C6067FF
:1014000000EB8303E266C4E91EC30EFB01F300EBAD
:1014100087006943C4F8800000EBC600C4F884006C
:1014200000EB8300C4F8880000EB81004DF2FC3132
:10143000C4F20001C4F89000884201D920205BE684
:1014400082421FD21146002041F8040BD4F890309C
:101450009942BFF45AAE506002F10801D4F89030BE
:1014600099423FBF906002F10C01D4F8903099424C
:10147000BFF44BAED0601032D4F890108A42E1D362
:1014800043E600BF002003B0BDE8F08F000000007D
:101490004DF200410068C4F20001884218BF704755
:1014A00080B544F2EC40C5F60200016821F4807179
:1014B000016040F600404FF44051C5F6020000F0D4
:1014C000B7FA9F2000F040FDA020BDE8804000F06A
:1014D0003BBD0000000000002DE9F041BAB0044619
:1014E00006A80830B02100253595CDE93855CDE95D
:1014F0003655FEF7E6FF4DF200412068C4F20001C8
:10150000884203D03AB0BDE8F08100BF4FF40040FC
:1015100006904FF08050219006A8079501F058FCE6
:1015200008B1FFF785F844F2E04040F60044C5F604
:101530000200C5F602044FF440580226C168002795
:1015400041F48071C160C168052501F48071019189
:101550000199016841F008010160006835A900F0B7
:101560000800019001982046CDF8D4803696CDE948
:101570003777399500F0ECFA9F200521002200F022
:101580000FFD9F2000F0F8FCA0200521002200F0B4
:1015900007FDA02000F0F0FC032001A9CDE904051F
:1015A00020460397CDE9018600F0D2FA3AB0BDE8B3
:1015B000F081000000000000704700000000000003
:1015C000B0B540F25C15C2F200452B68984218BFD6
:1015D000B0BD05F1500405F128024021184623460C
:1015E000FFF7B2FAA86A1138052807D804A151F804
:1015F00020002146BDE8B04004F09EBFB0BD00BF52
:10160000D4070024380800249C0800240009002482
:1016100064090024C809002470470000000000008D
:1016200090F8981001290DD1022180F898100168D6
:101630008A6922F001028A610021C0F89C10002012
:10164000704700BFD0F89C1041F00401C0F89C1016
:10165000012070470000000090F89810022927D15F
:10166000016851F8182F42F001020A600A68D20797
:1016700004BF0A685FEAC27222D00A6822F0100230
:101680000A600A68120707D50A68120744BF0A6889
:101690005FEA027200F1D2800A6842F002020A6038
:1016A0000021C0F89410012280F898200846704765
:1016B000D0F89C1041F00801C0F89C100120704740
:1016C0000A68D20704BF0A685FEAC272D5D10A6805
:1016D000D20704BF0A685FEAC272CED10A68D20795
:1016E00004BF0A685FEAC272C7D10A68D20704BFA2
:1016F0000A685FEAC272C0D10A68D20704BF0A68EA
:101700005FEAC272B9D10A68D20704BF0A685FEA09
:10171000C272B2D10A68D20704BF0A685FEAC27215
:10172000ABD10A68D20704BF0A685FEAC272A4D1CB
:101730000A68D20704BF0A685FEAC2729DD10A68CC
:10174000D20704BF0A685FEAC27296D10A68D2075C
:1017500004BF0A685FEAC2728FD10A68D20704BF69
:101760000A685FEAC2727FF488AF0A68D20704BFD2
:101770000A685FEAC2727FF480AF0A68D20704BFCA
:101780000A685FEAC2727FF478AF0A68D20704BFC2
:101790000A685FEAC2727FF470AF0A68D20704BFBA
:1017A0000A685FEAC2727FF468AF0A68D20704BFB2
:1017B0000A685FEAC2727FF460AF0A68D20704BFAA
:1017C0000A685FEAC2727FF458AF0A68D20704BFA2
:1017D0000A685FEAC2727FF450AF0A68D20704BF9A
:1017E0000A685FEAC2727FF448AF0A68D20704BF92
:1017F0000A685FEAC2727FF440AF0A68D20704BF8A
:101800000A685FEAC2727FF438AF0A68D20704BF81
:101810000A685FEAC2727FF430AF0A68D20704BF79
:101820000A685FEAC2727FF428AF0A68D20704BF71
:101830000A685FEAC2727FF420AFC3E00A68120749
:1018400044BF0A685FEA02727FF526AF0A68120792
:1018500044BF0A685FEA02727FF51EAF0A6812078A
:1018600044BF0A685FEA02727FF516AF0A68120782
:1018700044BF0A685FEA02727FF50EAF0A6812077A
:1018800044BF0A685FEA02727FF506AF0A68120772
:1018900044BF0A685FEA02727FF5FEAE0A6812076B
:1018A00044BF0A685FEA02727FF5F6AE0A68120763
:1018B00044BF0A685FEA02727FF5EEAE0A6812075B
:1018C00044BF0A685FEA02727FF5E6AE0A68120753
:1018D00044BF0A685FEA02727FF5DEAE0A6812074B
:1018E00044BF0A685FEA02727FF5D6AE0A68120743
:1018F00044BF0A685FEA02727FF5CEAE0A6812073B
:1019000044BF0A685FEA02727FF5C6AE0A68120732
:1019100044BF0A685FEA02727FF5BEAE0A6812072A
:1019200044BF0A685FEA02727FF5B6AE0A68120722
:1019300044BF0A685FEA02727FF5AEAE0A6812071A
:1019400044BF0A685FEA02727FF5A6AE0A68120712
:1019500044BF0A685FEA02727FF59EAE0A6812070A
:1019600044BF0A685FEA02727FF596AE0A68120702
:1019700044BF0A685FEA02727FF58EAE0A681207FA
:1019800044BF0A685FEA02727FF586AE0A681207F2
:1019900044BF0A685FEA02727FF57EAE0A681207EA
:1019A00044BF0A685FEA02727FF576AE0A681207E2
:1019B00044BF0A685FEA02727FF56EAE0A681207DA
:1019C0007FF56AAED0F89C1041F00101C0F89C1080
:1019D000032180F8981001207047000000000000EB
:1019E0007047000000000000704700000000000089
:1019F0007047000000000000704700000000000079
:101A00007047000000000000704700000000000068
:101A10007047000000000000704700000000000058
:101A20007047000000000000704700000000000048
:101A3000002908BF70472DE9F04F81B000F1264220
:101A400042F2004302F1FF72C5F602030A259842F2
:101A50004FEAB22440F2040E08BF0925082CC5F64F
:101A6000000E38BF4FEAB22500F1200C00220027FB
:101A70000024009529E000BF0323066803FA02FA58
:101A80006FF0030303EA540346EA0A06066007F010
:101A90001C060F2505FA06F95CF8036026EA09061C
:101AA0004CF80360C36823EA0A03C360436823EA6F
:101AB00008034360836823EA0A0383600134043720
:101AC00031FA04F302F102023CD0012303FA04F8D4
:101AD00018EA0109F2D040F2084324F00305C5F6E4
:101AE000000307F00C0BED580F2303FA0BFA009BD1
:101AF00005EA0A0503FA0BF6B542BDD1DEF87C50C3
:101B00004FF0B04325EA0905CEF87C50DEF880504E
:101B100025EA0905CEF88050DEF8005025EA0905CF
:101B2000CEF800501E68A50826EA09061E6040F29D
:101B30000843C5F6000353F8256026EA0A0643F871
:101B4000256099E701B0BDE8F04F70470000000044
:101B50002DE9F04F85B00F680390002F00F0E6806C
:101B6000039842F2004600F126428C4602F1FF72D1
:101B7000C5F602060A21B0424FEAB22600F1200063
:101B800008BF09210090082E38BF4FEAB221002477
:101B900000264FF000080191CDF808C00CE000BF0E
:101BA00008F10108DCF8007037FA08F106F10206C6
:101BB00004F1040400F0BA80012000FA08F217EAE8
:101BC0000209EDD0DCF804A003200AF0030B00FAB0
:101BD00006F5ABF10107012F12D803988768DCE9FD
:101BE00002C3AF43B3403B438360CAF3001743686B
:101BF00023EA020207FA08F31A43426008E000BF32
:101C0000DCF808C0BBF1030F08BFBCF1010F2DD0F9
:101C100003994FEA480EE8430CFA06F3CA68BBF191
:101C2000020F22EA050242EA0302CA601AD1834681
:101C30006FF0030000EA5802009804F01C050F2121
:101C400050F802C001FA05FA02992CEA0A078C46FC
:101C50000B69AB403B438350D1F804A058460AF0CF
:101C6000030B0BE0DDF808C008E000BF4FF0030BEA
:101C7000B6460BFA06F2DDF808C0D043039B1AF40F
:101C8000403F1A6802EA00010BFA0EF241EA020133
:101C900019603FF485AF44F2F44040F20845C5F6C0
:101CA0000200C5F60005016841F00201016001680B
:101CB0000F2001F00201049128F00301049A04F0BE
:101CC0000C024B5900FA02F70198BB4300FA02F2EA
:101CD0004FF0B0401A434A510168DCF8042041EA51
:101CE0000903D70258BF21EA09039702036040F2B3
:101CF0000400C5F60000016841EA090358BF21EA63
:101D0000090397030360D0F8801041EA090358BF24
:101D100021EA0903D203C0F88030C16F41EA090308
:101D200058BF21EA0903C3673AE700BF05B0BDE821
:101D3000F08F00000000000044F68030C2F2004046
:101D4000006870470000000040F2000044F6803157
:101D5000C2F20040C2F2004100780A6810440860F4
:101D6000704700000000000080B5032000F048F933
:101D700001F01EFF44F2184148F6EC73C5F602016B
:101D8000C0F600030A68C2F303229A5C096801F0F6
:101D90000F0102F01F02595CD04040F20C02C2F267
:101DA000004201F01F0120FA01F1116040F2080128
:101DB000C2F2004108600F2000F00AF800281CBFA2
:101DC000012080BD00F0A8F8002080BD00000000C8
:101DD0000F2847D8B0B58AB00446362000222146E5
:101DE000002500F0DDF8362000F0C6F840F20400CF
:101DF000C2F20040046044F2E840C5F60200016807
:101E000041F010010160006801A900F0100002908B
:101E1000029802A801F048FE079C002C18BF01247C
:101E200001F096FE4DF68361A040C4F21B3141F2F1
:101E30000002A0FB010140F28870C2F200404FF0A6
:101E4000FF33C4F20002026003EB9141C0E90115C7
:101E500040F2E731C0E9031502F0DEF920B10120BC
:101E60000AB0B0BD0120704740F28870C2F2004055
:101E700002F006FA0AB0B0BD10B54EF6A05E437887
:101E8000CEF2000E90F800C04EF8083CDEF80030AC
:101E900023F00103CEF8003043684EF8043C037B86
:101EA000C27A817A447B120642EA0372837B42EA59
:101EB000C141C27B41EA8441447A41EA4341007A0C
:101EC00041EA024141EA042141EA400040EA0C00B3
:101ED000CEF8000010BD00004EF62450CEF20000F7
:101EE000BFF35F8F016821F4803101600021016739
:101EF00070470000000000004EF6245140F0010041
:101F0000CEF200010867086840F480300860BFF333
:101F10004F8FBFF36F8F704781B044F2F4400022BF
:101F2000C5F60200016841F00201016000680F215E
:101F300000F0020000906FF00100009B01B000F083
:101F40002FB8000000000000002848BF70474EF284
:101F5000801300F01F01C0F34A10CEF200030122EB
:101F600002FA01F143F82010BFF34F8FBFF36F8FD8
:101F70007047000000000000002848BF704700F0D4
:101F80001F01012202FA01F14EF20012C0F34A10C1
:101F9000CEF2000242F8201070470000000000005E
:101FA00070B54EF60C5C4FF0FF36CEF2000C00F12F
:101FB000604505F56445DCF80030C3F3022E8EF071
:101FC0000703042B28BF0423BEF1030406FA03F31E
:101FD00021EA030100F00F0338BF0024043B00286E
:101FE000634406FA04F048BF03F10C05A14022EA5D
:101FF000000008430001287070BD000000000000D0
:102000004EF60C514FF6FF03CEF200010A681A405B
:1020100060F30A2242F0806040F0FD700860704773
:1020200004F08EFB0000000070470000000000007C
:10203000D0F8E00402F068BF01EBC10200EB8202BD
:10204000D0F8E004126A02F0C3BE000000000000F5
:1020500001EBC10200EB8202D0F8E004D2F860226A
:1020600002F012BF00000000D0F8E00402F050BF00
:10207000B0B5027901F00F03934201D90120B0BD40
:102080004AB24FF41574002A03EBC30E48BF142460
:10209000C909021990F8944402EB8E0C012C4FF000
:1020A00000048CF801108CF8024002F82E3001D1A7
:1020B0000220B0BD012180F894140168054608464D
:1020C000614603F0BDFB204685F89444B0BD000096
:1020D00010B54FFA81FE01F00F0C6FF3DF22BEF155
:1020E000000F0CEBCC0123D400EB810E00218EF805
:1020F00055120EF515718EF854C2CEF85C228EF88A
:102100005832022B01D100224A7190F89424012AFE
:1021100002D1022010BD00BF012280F89424026881
:102120000446104603F008FB002084F8940410BD18
:1021300000EB81014FF0010E01F814CF81F801E0AE
:102140008A600B71A1F81AC0022BDCD0DDE7000019
:1021500080B501F00F0C0CEBCC0100EB810E0021DF
:10216000CEE998238379CEF868128EF855120EF5D1
:102170001571012B8EF854C208BFCA6100681A4657
:1021800003F0AAFB002080BDB0B5027901F00F0476
:1021900094424FF001022BD84BB24FEAD11C002BD6
:1021A0004FF4157548BF214648BF142590F894E4B4
:1021B00001EBC1030544BEF1010F05EB830105F8F6
:1021C000234081F801C08A7002D10220B0BD00BF57
:1021D00080F894240546006803F05EFB2CB9A979C9
:1021E000286805F29C4203F0FBFA002285F894244B
:1021F0001046B0BD0000000080B501F00F0C90F853
:1022000006E00CEBCC01BEF1010F00EB810101F8FF
:1022100014CF4FF0000C0B614FF00103CA60C1F8FE
:1022200014C04B7008BFCA610068724603F054FBCB
:10223000002080BD000000002DE9F04F87B0056848
:102240008246284603F0F8FD10B107B0BDE8F08FD4
:10225000DAF8000003F020FE0028F6D0D5F80808D0
:10226000C0F30D20CAF8D404DAF8000003F014FE1D
:102270008007DAF8000003D5416901F002014161ED
:1022800005F50061059103F007FEC006DAF80000CD
:10229000069535D5816921F0100181612C6A04F021
:1022A0000F0000EBC001C4F343400AEB8101062894
:1022B00001F5157512D002281BD147F6F07014EA0B
:1022C000000616D03409E9680698224603F0E8FDB6
:1022D000E86800EB1610E86008E000BF0AF29C41D5
:1022E0000822069803F0DCFDC4F30A146869204450
:1022F0006861DAF80000816941F010018161069D92
:1023000003F0CAFD000340F1F980DAF8000003F0A1
:102310009FFD002800F0F28006464FF4306800244C
:102320004FF0000B0AF29C40049008E00BF1010B07
:10233000760808F1200804F1240400F0DF80F0079B
:10234000F4D05FFA8BF9DAF80000494603F09CFDFF
:102350000746C00761D005EB080001218160DAF86B
:10236000000008EB0001036C8A689AF80650012D02
:1023700026D1150734D4950600F1B88043F20B0539
:10238000C4F65475AB42069D02D312F4004231D11B
:102390000AEB0402D2F8743209696FF3DF41A3EB50
:1023A0000101C2F86812A4BBD2F86432002B00F01D
:1023B000A380D2F860020844C2F8600229E000BF9E
:1023C00043F20B05C4F65475FF35AB4218D1100427
:1023D000069D0FD490061CD52020886019E000BF10
:1023E00043F20B00069DC4F65470834215D312F4D9
:1023F000004012D04FF40040886038070FD43DE011
:10240000069D34B9DAF8641219B90021049A03F070
:10241000E7F950464946FFF71BFE38072ED505EB76
:1024200008000821816043F20B01DAF80000C4F6CD
:102430005471056C40448D4281680BD311F4004106
:1024400008D04FF400418160504600F075FC069DB5
:102450000AE000BF504600F06FFC43F20B00C4F6E8
:1024600054708542069D09D39AF80600012805D1CB
:10247000DAF800000121049A03F0B2F9F80607D453
:10248000B8070BD4B80624D4B8047FF54FAF27E0C3
:1024900005EB080010218160B807F3D568690006D4
:1024A00004D50599486840F4806048600AEB040050
:1024B00090F85712012906D1002180F85712504692
:1024C000494600F001FC05EB080002218160B806D6
:1024D000DAD505EB080020218160B8047FF526AF2E
:1024E00005EB08004FF4005181601FE72020886051
:1024F000069D380793D4C1E7012187E7DAF8000089
:1025000003F0CAFC400340F1E180DAF8000003F078
:1025100097FC002800F0DA800646069800F510695E
:1025200000250AF1140004900AF29C400290CDF8B4
:102530000C9004E0760805F1010500F0C780F00773
:10254000F8D0EFB2DAF80000394603F089FC04460F
:10255000C0070BD1200735D4E00639D460063DD43E
:10256000A00741D42006E5D558E000BF059B05F043
:102570000F004FF0010C09EB45120CFA00F0596BFB
:1025800021EA00005863C2F808C09AF80600012842
:1025900012D105EBC500049901EB8000D0E90212CD
:1025A0001144C16045B9006930B9DAF80000012171
:1025B000029A03F015F900BF50463946FFF73CFD7B
:1025C0002007C9D509EB451008218160E006C5D573
:1025D00009EB4510102181606006C1D509EB45105B
:1025E00040218160A007BDD50698294603F0B4FBC1
:1025F00005EBC500049901EB800010F8031F0129C9
:1026000005D1002101705046394600F059FB09EB15
:1026100045100221816020067FF58CAF05EBC500D7
:10262000049901EB8008D8E904108142FFF482AFDD
:10263000DAF800400A1AD8F808309A4238BF134630
:1026400004EB451203F1030CD2F818399BB2B3EB3B
:102650009C0F2BD302F51069D8F81010814223D9B2
:10266000081A9AF80620D8E902B1584538BF8346BF
:10267000009220461FFA8BF33A4603F009FDD8F882
:102680000C00D8F814105844C8F80C0001EB0B00EB
:10269000C8F814000BF10301D9F8182092B2B2EB7C
:1026A000910FD9D2D8F81010DDF80C9081423FF686
:1026B00041AF05F00F00012101FA00F0D4F8341801
:1026C00021EA0000C4F8340834E700BFDAF800005B
:1026D00003F0E2FB00280DD4DAF80000069D03F0B9
:1026E000DBFB000526D4DAF8000003F0D5FB00017F
:1026F00031D43CE00599486820F0010048609AF820
:10270000CC04012808D100208AF8CC0400215046CE
:10271000FFF78AFC03E000BF504600F0F1FADAF858
:102720000000069D416901F00041416103F0B4FBE6
:102730000005D8D505988068C00702D0504600F043
:1027400003FBDAF80000416901F40061416103F024
:10275000A3FB00010BD5DAF80000416901F000612C
:1027600041619AF8CC1499B1504600F0EDFADAF8CC
:10277000000003F091FBC0041BD4DAF8000003F062
:102780008BFB8004DAF8000000F10E8127E100BF26
:1027900001218AF8CC14406DC0F38300CAF8D0043C
:1027A0005046FFF741FCDAF8000003F075FBC00467
:1027B000E3D50599486820F001004860DAF8000088
:1027C000102103F0C9FA9AF80400010600F0BB805A
:1027D000C1B200F00300042902D2002167E000BF6B
:1027E0006FF06002002302EA41124FF67F370021AA
:1027F000EE1880339A4201F10401C6F80879D6F840
:10280000005925F40015C6F80059C6F8087BD6F81B
:10281000005B25F40015C6F8005BD6F8005B45F0B8
:102820000065C6F8005BC6F82879D6F8205925F46B
:102830000015C6F82059C6F8287BD6F8205B25F489
:102840000015C6F8205BD6F8205B45F00065C6F899
:10285000205BC6F84879D6F8405925F40015C6F82B
:102860004059C6F8487BD6F8405B25F40015C6F8F9
:10287000405BD6F8405B45F00065C6F8405BC6F8A3
:102880006879D6F8605925F40015C6F86059C6F87D
:10289000687BD6F8605B25F40015C6F8605BD6F857
:1028A000605B45F00065C6F8605B069DA0D100281E
:1028B00049D005F5106305F5306203EB41164FF67C
:1028C0007F374D010128B76002EB41145E5926F4B1
:1028D00000165E51A760565926F4001656515659F7
:1028E00046F000665651069D2DD04E1C02284FEA38
:1028F000461403EB461502EB4616AF601D5925F44E
:1029000000151D51069DB760175927F40017175180
:10291000175947F00060105115D0881C4FF67F36CC
:10292000470103EB401102EB40108E60D95921F4AE
:102930000011D9518660D05920F40010D051D059DF
:1029400040F00060D051059F84214422F86940F096
:102950000110F8619AF80F0000284FF00B0008BF33
:10296000142104BF42F22B0010227B5818437850E8
:10297000B85840F00B00B85038680AF29C4220F476
:10298000FE6038609AF80610DAF8000002F028FFBE
:10299000DAF80000416901F48051416103F07CFAEA
:1029A0008004DAF800001AD502F00AFFDAF8000015
:1029B00003F032FA8AF80700DAF8004001F0A0F8D4
:1029C0009AF807200146204603F0D6FA504600F058
:1029D0007FF9DAF80000416901F40051416103F028
:1029E0005BFA000706D4DAF8000003F055FA000697
:1029F0000ED4BCE0504600F087F9DAF800004169D7
:102A000001F00801416103F047FA000640F1AF8090
:102A1000A86920F08000A8619AF80400C1B20229D8
:102A2000C0F0A5804FF0FF316FF0010252FA80F242
:102A300051FA80F1032A01F0030001D201215BE089
:102A40000AF27B2721F0030105F5386300223E4698
:102A500005E000BF04328033914237464AD016F871
:102A6000905B012D0CD097F82450012D18D097F8C9
:102A70004850012D24D097F86C70012FEAD12FE037
:102A800053F8605C45F0006543F8605C53F8605CA7
:102A900045F0804543F8605C97F82450012DE6D15D
:102AA00053F8405C45F0006543F8405C53F8405CE7
:102AB00045F0804543F8405C97F84850012DDAD145
:102AC00053F8205C45F0006543F8205C53F8205C27
:102AD00045F0804543F8205C97F86C70012FB9D120
:102AE0001F6847F000671F601F6847F080471F603E
:102AF000B0E700BF511C069DC8B301EBC1020AF547
:102B0000157303EB8202D278012A05F5306208D1F1
:102B10004F01D65946F00066D651D65946F0804648
:102B2000D651012823D04F1C07EBC70603EB8606BE
:102B3000F678012E08D17F01D65946F00066D651AD
:102B4000D65946F08046D651022810D0881C00EB9A
:102B5000C00103EB8101C978012908D14001115856
:102B600041F000611150115841F080411150DAF8E4
:102B7000000003F091F9C0024CD4DAF8000003F031
:102B80008BF9800240F17E809AF80410022928D344
:102B900005F5326001390AF51F72012306E000BF16
:102BA000013900F1200002F124021AD007681678DA
:102BB000012EF5D1B7F1FF3FF2DCDAF8D46486EAF2
:102BC0001747FF07ECD102F8013CAF6947F08007D7
:102BD000AF616F693F06E3D40599486840F400701F
:102BE0004860DAF80000416901F40011416103F026
:102BF00053F940004CD55046FFF71AFADAF80000B6
:102C0000416901F08041416103F046F940077FF5D9
:102C10001CAB44E09AF80400022827D306990AF175
:102C2000140401F512650AF13B064FF00108012773
:102C300006E000BF01372035874206F1240615D291
:102C400029687278012AF5D1B1F1FF3FF2DC07F073
:102C50000F0086F8008000EBC00004EB8001DAF87A
:102C6000000002F05DFF9AF80400E3E7DAF80000E4
:102C7000416901F480114161069D03F00DF9800264
:102C80003FF582AFDAF8000003F006F94000B2D455
:102C9000DAF8000003F000F940077FF5D6AADAF869
:102CA00000004468610704D55046FFF7DDF9DAF803
:102CB000000041682143416007B0BDE8F08F00008B
:102CC000D0F8E00402F04CB9D0F8E00402F060B9AA
:102CD00010B50446C07928B1022801D0FDF7A8FC40
:102CE000012100E00021D4F8E00402F0E1F9D4F879
:102CF000E004BDE8104002F08BB9000000000000C5
:102D0000D0F8E00402F0B8B9D0F8E00402F0C0B99D
:102D100090F89424012A01D10220704710B50122B5
:102D200080F89424417404460268104603F010F9B8
:102D3000002084F8940410BDD0F8E02400F29C41F7
:102D4000104602F0CDB9000010B50446D0F8E004FA
:102D500002F00EFA2068D0F8001E41F00101C0F820
:102D6000001EE07A002808BF10BD4EF61050CEF2CB
:102D70000000016841F00601016010BD0000000084
:102D8000B0B544F60C05C5F602052968490729685F
:102D900006D401F00701081A18BF0120B0BD00BF1A
:102DA00021F0070108432860FEF7C6FF044600BF74
:102DB00055F8080C800407D4FEF7BEFF001BB0F5E1
:102DC0007A7FF5D90120B0BD0020B0BD0000000021
:102DD0002DE9F0470446C07844F22C480007C5F6B8
:102DE000020828D5606E4FEA305103292AD8DFE85F
:102DF00001F0030B131B00BFD8F8001041F40031A1
:102E0000C8F8001010E000BF04F10800022101F032
:102E10006BFC064680B906E004F12800022101F0AF
:102E2000F7FC064640B9606ED8F8241021F4401132
:102E30000843C8F8240000266078C00706D135464C
:102E40002FE000BF01266078C007F8D0A06D0428ED
:102E50003ED83546DFE800F004140E0B0B0000BF2F
:102E6000D8F80000354640F40030C8F800002F467E
:102E7000C5B90DE004F12800002101F0C9FC04E00F
:102E800004F10800002101F02FFC05462F464DB942
:102E9000D8F82400A16D20F0070000250843C8F8E9
:102EA00024003746607840073AD5D4F8A4004FEAAA
:102EB0007050052818D8DFE800F0031D11232323E4
:102EC000D8F8000040F40030C8F8000018E000BF57
:102ED0000125012760784007E7D421E004F12800AC
:102EE000002101F095FC0AE0012501266078000729
:102EF0001AD44FE004F10800002101F0F5FB05466B
:102F00002E461DB1607800070ED443E0D8F82C009F
:102F1000D4F8A41020F4600000250843C8F82C0061
:102F20003E466078000735D5D4F8A8004FEA3060F7
:102F3000052813D8DFE800F004180C1E1E1E00BF81
:102F4000D8F8000040F40030C8F8000012E000BFDC
:102F500004F12800002101F05BFC0AE001250127B3
:102F6000E07880071AD434E004F10800002101F071
:102F7000BBFB05462F461DB1E07880070ED428E044
:102F8000D8F82C00D4F8A81020F0E0600025084301
:102F9000C8F82C003746E07880071AD5E06C4FEA75
:102FA0003010032838D8DFE800F009032D0900BFEE
:102FB000D8F8000040F40030C8F800002E464DB9A3
:102FC000D8F82000E16C20F0300000250843C8F854
:102FD00020003E466078C00639D5E06D4FEA3030BB
:102FE000042847D8DFE800F004221C0A0A0000BFCA
:102FF000D8F8000040F40030C8F800002F463DBB70
:103000001CE000BF04F10800022101F06DFB054641
:10301000002D2E46DED1D3E701250126DAE700BFD9
:1030200004F12800002101F0F3FB04E004F10800A2
:10303000002101F059FB05462F464DB9D8F8240070
:10304000E16D20F4E04000250843C8F8240037462D
:103050006078800635D5206E4FEA3040052815D8B7
:10306000DFE800F0041A0E04040400BF2E46DDB9A8
:103070001EE000BF0125012760788006EBD420E028
:1030800004F12800012101F0C3FB0AE0012501261B
:103090006078400619D449E004F10800012101F0EC
:1030A00023FB05462E461DB1607840060DD43DE059
:1030B000D8F82400216E20F4E02000250843C8F849
:1030C00024003E466078400630D5D4F8AC004FEA84
:1030D000307005280ED8DFE800F003130703030360
:1030E0002F46ADB918E000BF04F12800012101F01E
:1030F0008FFB0AE001250127607800061AD43CE026
:1031000004F10800012101F0EFFA05462F461DB138
:10311000607800060ED430E0D8F82C00D4F8AC105B
:1031200020F0E04000250843C8F82C0037466078BE
:10313000000622D5E06E58B1B0F1005F0CD0B0F1BE
:10314000805F37D1D8F8000040F40030C8F80000A4
:103150002E469DB908E000BF04F10800012101F0EE
:10316000C3FA05462E464DB9D8F82400E16E20F08A
:10317000405000250843C8F824003E46E078C007C8
:103180001DD0A06C032855D8DFE800F008024A08DB
:10319000D8F8000040F40030C8F80000A9467DB916
:1031A000D8F82000A16C20F0030000250843C8F8DF
:1031B000200004E001250126E078C007E1D1B146F6
:1031C000A078400602D44F4618E000BFD8F8D403D8
:1031D00040F48070C8F8D403FEF7AEFD064600BF89
:1031E000D8F8D403C00507D4FEF7A6FD801B6428D9
:1031F000F6D90325032701E02F46FDB12078C0074B
:1032000000F06F80A06F4FEAF00005284ED8DFE88D
:1032100000F0035347030303002D2E4654D157E01B
:1032200004F10800022101F05FFA0546002DA946CD
:10323000C6D1B5E701254FF00109C1E7D8F8441020
:10324000D4F8B000414011F4407F11D0D8F84410B8
:10325000D8F8442042F48032C8F84420D8F84420FA
:1032600021F4407122F48032C8F84420C8F8441098
:10327000B0F5807F40F0D082FEF75EFD064641F259
:10328000883A0325032700BFD8F84400800700F1DF
:10329000C182FEF751FD801B5045F5D9AEE700BF56
:1032A00004F12800012101F0B3FA0AE0012501260A
:1032B0002078800719D446E004F10800012101F0CC
:1032C00013FA05462E461DB1207880070DD43AE04A
:1032D000D8F82800A16F20F0380000250843C8F86E
:1032E00028003E46207880072DD5606F05280FD82E
:1032F000DFE800F004140804040400BF2F46ADB951
:1033000018E000BF04F12800012101F081FA0AE071
:10331000012501272078400719D447E004F108006F
:10332000012101F0E1F905462F461DB12078400743
:103330000DD43BE0D8F82800616F20F0070000258D
:103340000843C8F828003746207840072ED5D4F81F
:10335000900005280ED8DFE800F0031307030303ED
:103360002E46ADB918E000BF04F12800012101F09C
:103370004FFA0AE001250126207880061AD44BE096
:1033800004F10800012101F0AFF905462E461DB1F8
:10339000207880060ED43FE0D8F82C00D4F89010A6
:1033A00020F0070000250843C8F82C003E4620788E
:1033B000800631D5D4F88C004FEA307005280FD83C
:1033C000DFE800F004140804040400BF2F46ADB980
:1033D00018E000BF04F12800022101F019FA0AE008
:1033E00001250127207840061AD44BE004F108009B
:1033F000002101F079F905462F461DB120784006DD
:103400000ED43FE0D8F82800D4F88C1020F0E0402B
:1034100000250843C8F8280037462078400631D5F3
:10342000D4F898004FEAB02005280FD8DFE800F064
:1034300004140804040400BF2E46ADB918E000BF10
:1034400004F12800022101F0E3F90AE00125012638
:10345000207800061AD44EE004F10800002101F0A3
:1034600043F905462E461DB1207800060ED442E0F1
:10347000D8F82C00D4F8981020F4E0500025084328
:10348000C8F82C003E462078000634D5D4F89C00BD
:103490004FEA7030052815D8DFE800F0041A0E0452
:1034A000040400BF2F46E5B12068010727D4C106F8
:1034B0003ED4000355D477E004F12800022101F046
:1034C000A7F90AE00125012720680107EFD516E0DA
:1034D00004F10800002101F007F90546002D2F46F0
:1034E000E2D1D8F82C00D4F89C1020F460400025DC
:1034F0000843C8F82C00374620680107D7D5D4F810
:103500008000B0F5805F09D104F12800022101F0AC
:103510007FF9002818BF0127D4F88000D8F82810B8
:1035200021F440510843C8F828002068C106C0D5DE
:10353000D4F89400B0F5807F09D104F1280002216D
:1035400001F066F9002818BF0127D4F89400D8F8D4
:103550002C1021F440710843C8F82C0020680003A7
:1035600022D5D4F8A000B0F5003F11D0B0F5803FCF
:1035700008D0002844D104F10800002101F0B4F87B
:1035800005E000BF04F12800022101F041F90546E1
:103590002E4655B9D8F82C00D4F8A01020F44030AD
:1035A00000250843C8F82C003E46A07840072CD5DB
:1035B000D4F88400B0F5401F0BD0B0F5001F0BD03D
:1035C000B0F5801F2AD1D8F8000040F40030C8F8C8
:1035D00000002F46D5B907E004F12800012101F0D1
:1035E00017F905462F468DB9D8F82800D4F884106D
:1035F00020F4401000250843C8F8280005E000BF6B
:1036000001250126A0784007D2D43746A078C0070C
:1036100009D13E462168880015D532E001250127F1
:10362000A078C007F5D0206DB0F5803F10D018BB52
:10363000D8F8000040F40030C8F800002E4685B1EC
:10364000216888001DD460688A0326D465E000BF25
:1036500004F10800022101F047F80546002D2E462E
:10366000EED1D8F82000216D20F4803000250843E9
:10367000C8F82000CDE700BF012501262168880099
:10368000E1D504F12800022101F0C2F8002818BF9A
:103690000126D4E900108A033FD5E26F6FF00103E1
:1036A00003EB3223022B0BD34FEA322343B1012B1E
:1036B00040F0AA80D8F8003043F40033C8F8003056
:1036C00025B3CA022CD48A0234D44A003CD4CA0F8F
:1036D00049D1090251D4C1075AD1810763D44107A6
:1036E0006CD4010776D4C10600F18080800607D52E
:1036F00004F12800022101F08BF8002818BF0125F1
:10370000002D18BF01252846BDE8F087D8F82830DD
:1037100023F440731A43C8F828203546CA02D2D58C
:10372000D8F82420236F22F000421A43C8F824203E
:103730008A02CAD5D8F82420A36E22F080721A43D8
:10374000C8F824204A00C2D558F81C2C22F40042A4
:1037500048F81C2CD4F8B42058F81C3C1A4348F8FC
:103760001C2CCA0FB5D0D8F82020636D22F040522F
:103770001A43C8F820200902ADD5D8F82810D4F88B
:10378000882021F440011143C8F82810C107A4D0B3
:1037900004F10800002100F0A7FF002818BF05462B
:1037A000606881079BD504F10800012100F09CFFAF
:1037B000002818BF05466068410792D504F108004B
:1037C000022100F091FF002818BF0546606801073C
:1037D0007FF589AF04F12800002101F019F80028D5
:1037E00018BF05466068C1067FF580AF04F1280068
:1037F000012101F00DF8002818BF05466068800619
:103800003FF576AF7CE700BF0125CA027FF55BAFCD
:1038100086E700BFD4F8B0004FF6CF7358F81C2CE1
:10382000C0F2FF0300F4407122F47C5203EA10134B
:103830006FF31F30B1F5407F08BF1A43002548F8E9
:103840001C2CD8F844100843C8F84400FFF7BBBC50
:103850002DE9F04381B0002800F0208142F20009F8
:103860000446C5F20029D9F8000000F00F0081429B
:103870000DD9D9F8000020F00F000843C9F8000066
:10388000D9F8000000F00F00884240F0078120685E
:1038900044F218464207C5F602060AD52269336883
:1038A00003F070039A4204D9336823F070031A437B
:1038B000326002070AD56269736803F070039A42A6
:1038C00004D9736823F070031A437260C2060AD5E4
:1038D000A269736803F4E0639A4204D9736823F41D
:1038E000E0631A43726082060AD5E269B36803F0A6
:1038F00070039A4204D9B36823F070031A43B2608C
:1039000010F002020AD0E368376807F00F07BB42E5
:1039100004D9376827F00F073B433360C3073FD014
:10392000306820F47062D4E901031A433260012840
:1039300056F8182C0AD0032804D002280AD1920382
:103940000BD4ABE0920108D4A8E000BFD20504D4A8
:10395000A4E000BF520740F1A180884656F8081C39
:1039600021F00701084346F8080CFEF7E5F9054683
:1039700041F2883756F8080C616800F03800B0EB67
:10398000C10F09D0FEF7D8F9401BB842F2D9032085
:1039900001B0BDE8F08300BF2068414600F002029C
:1039A00052B1E268336803F00F039A4204D23368DD
:1039B00023F00F031A433260D9F8002002F00F02FF
:1039C00091420CD2D9F8002022F00F020A43C9F824
:1039D0000020D9F8002002F00F028A425ED1410790
:1039E0000AD52169326802F07002914204D232682D
:1039F00022F070021143316001070AD561697268D3
:103A000002F07002914204D2726822F070021143F7
:103A10007160C1060AD5A169726802F4E062914240
:103A200004D2726822F4E0621143716080060AD504
:103A3000E069B16801F07001884204D2B16821F0F8
:103A400070010843B06000F0B3F8316848F6EC72DA
:103A5000C0F60002C1F30321515C336803F00F0389
:103A600001F01F01D25C20FA01F102F01F0040F2C8
:103A70000C02C2F2004221FA00F0106040F2040091
:103A800040F20802C2F20040C2F200420068116037
:103A900001B0BDE8F043FEF79BB900BF012001B0C3
:103AA000BDE8F083000000003F22026044F21842AB
:103AB000C5F6020252F8083C03F00703436013689E
:103AC00003F470638360136803F00F03C36013682B
:103AD00003F070030361536803F07003436153689C
:103AE00003F4E0638361926802F07002C26142F203
:103AF0000000C5F20020006800F00F000860704769
:103B000080B500F055F844F2184148F6EC73C5F65C
:103B10000201C0F600030A68C2F303229A5C096836
:103B200001F00F0102F01F02595C20FA02F201F0CD
:103B30001F0040F20C01C2F2004122FA00F00860BE
:103B400040F20801C2F200410A6080BD000000009E
:103B500080B500F02DF844F2184C48F6EC73C5F629
:103B6000020CC0F60003DCF80020C2F303229A5CCA
:103B7000DCF8001001F00F0102F01F02595CD04088
:103B800040F20C02C2F2004201F01F0120FA01F1E2
:103B9000116040F20802C2F200421060DCF804003A
:103BA000C0F30210185C00F01F0021FA00F080BD85
:103BB00044F20041C5F602010869C0F3C2000328BF
:103BC00016D002280ED0002832D10868800649F2AB
:103BD0000000C0F2D03058BF70470968C1F3C1017E
:103BE000C840704743F20060C0F26E10704700BFDB
:103BF0008B6A886AD1F82CC04A6BC0F30510E8B113
:103C0000C2F3CC0203F0030300EE102A9FED2A1A40
:103C1000B8EE400A20EE010A9FED281ADFE803F013
:103C2000022110210A6892060ED49FED261A18E090
:103C300040F60010C0F23D00704700BF0020704702
:103C40009FED1F1A0DE000BF0A6849F20003C0F2A1
:103C5000D033C2F3C10223FA02F201EE102AB8EE09
:103C6000411A0A6B9FED183A6FF35F2202EE102A99
:103C70005FEACC7203FE000A03EE100A086BB8EE8E
:103C8000422AC0F34620B8EE433A013030EE020A31
:103C9000B7EE002A81EE031A30EE020A21EE000A86
:103CA00001EE100AB8EE411A80EE010ABCEEC00A1D
:103CB00010EE100A704700BF000000390024744A5B
:103CC000001BB74B0024744C0000000000000000F3
:103CD00070B3F0B581B00446007844F20046C007E6
:103CE000C5F6020626D1207880076AD5306910F023
:103CF0003801B06A42D0182908BF5FEA80703DD011
:103D0000E0683168002800F02D8121F01901084396
:103D10003060FEF711F80546306840074AD4FEF7D8
:103D20000BF8401B0228F7D9032001B0F0BD00BFFB
:103D300001207047306900F03801B06A102905D0C1
:103D400018290BD100F00300022807D13068800346
:103D5000C9D560680028C6D1AAE000BF6168306894
:103D6000002900F03981B1F5A02F00F02D81B1F5C7
:103D7000803F40F0478140F4803049E1306840079F
:103D8000E06802D5002800F09380316821F0190125
:103D900008433060FDF7D0FF054600BF306840079C
:103DA00008D4FDF7C9FF401B02284FF00300F5D9E6
:103DB00001B0F0BD7068216920F0FE4040EA01606A
:103DC00070602078C0061AD5306900F03801B06AFA
:103DD000082907D0182940F0858000F00300012849
:103DE00040F080803068C00502D5E06980285FD14E
:103DF000F068216A20F07C5040EA0160F060207891
:103E000000073FD42078800656D42078400700F180
:103E10008180656A9DB3306900F03800182840F051
:103E20001981012DB16A306B42D001F00302A36AFF
:103E30009A423DD1C1F30511E26A914238D101465F
:103E4000226B6FF35F21013A914231D1C0F34622D8
:103E5000616B01398A422BD1C0F30642A16B013953
:103E60008A4225D1C0F30660E16B013988421FD137
:103E7000706BA16CC0F3CC00814240F0A5810020A2
:103E800001B0F0BD60690028706F59D040F00100AA
:103E90007067FDF751FF0546706F8007B2D4FDF7DC
:103EA0004BFF401B0228F7D9032001B0F0BD00BF33
:103EB000012001B0F0BD00BFA0690028306871D0BA
:103EC00040F480503060FDF737FF054630688004CD
:103ED0009BD4FDF731FF401B0228F7D9032001B026
:103EE000F0BD00BFE0690028306800F0A18040F01C
:103EF00080003060FDF720FF054600BF3068C00538
:103F00003FF576AFFDF718FF401B02284FF0030086
:103F1000F4D94DE7D6F8000440F48070C6F80004E8
:103F2000FDF70AFF054600BFD6F80004C0052BD4F4
:103F3000FDF702FF401B6428F6D9032001B0F0BD55
:103F400020F001007067FDF7F7FE0546706F8007EF
:103F50007FF558AFFDF7F0FE401B02284FF003003D
:103F6000F4D925E721F001003060FDF7E5FE0546B4
:103F7000306840077FF525AFFDF7DEFE401B0228C5
:103F80004FF00300F4D913E7A168306F002900F067
:103F90008B80052900F08080012940F09D8040F051
:103FA00001009FE020F480503060FDF7C5FE05461B
:103FB000306880047FF529AFFDF7BEFE401B022864
:103FC0004FF00300F4D9F3E640F48020306030680D
:103FD00040F480301CE000BF20F480303060306856
:103FE00020F480203060FDF7A7FE0546306880038E
:103FF0007FF579AEFDF7A0FE401B64284FF003006B
:10400000F4D9D5E620F480303060306820F4802088
:104010003060FDF791FE0546306880033FF563AEE2
:10402000FDF78AFE401B6428F6D9032001B0F0BDDD
:1040300020F080003060FDF77FFE05463068C00547
:104040007FF5DDAEFDF778FE401B02284FF0030040
:10405000F4D9ADE6306820F080703060FDF76CFE7A
:10406000022D05460CD100BF306880014CD5FDF70C
:1040700063FE401B02284FF00300F5D998E600BF0D
:10408000306880017FF5FBAEFDF756FE401B02282D
:104090004FF00300F4D98BE640F004003067306F36
:1040A00040F001001EE000BF20F001003067306FDB
:1040B00020F004003067FDF73FFE054641F28837E7
:1040C000306F80077FF5A5AEFDF736FE401BB84286
:1040D0004FF00300F4D96BE620F001003067306F39
:1040E00020F004003067FDF727FE054641F28837CF
:1040F000306F80073FF58DAEFDF71EFE401BB842C6
:104100004FF00300F4D953E604F12807B06A40F2F7
:10411000F33188438ECF0843591E40EA02104FF412
:104120007E426FF35F21B06202EB47204FF4FE0244
:1041300080B2E36B0844A16B02EB01414FF0FE42F9
:1041400001F4FE0102EB0362084402F0FE41084460
:104150003063F06A4FF6F87120F00100F062706B86
:10416000A26C884340EAC2007063F06A216C20F0C0
:104170000C000843F062F06A616C20F00200084312
:10418000F062F06A40F48030F062F06A40F400308F
:10419000F062F06A40F48020F062F06A40F00100C2
:1041A000F062306840F080703060FDF7C5FD044675
:1041B000306880013FF563AEFDF7BEFD001B0228AD
:1041C0004FF00300F4D9F3E5F06A20F00100F0624B
:1041D000FDF7B2FD0546FDF7AFFDA842FBD0706BC1
:1041E0004FF6F871A26C884340EAC2007063F06A2F
:1041F00040F00100F062002001B0F0BD00000000BE
:104200007047000000000000704700000000000040
:10421000704700000000000060B310B5044690F83D
:104220003D0028B9002084F83C00204600F024F826
:10423000022084F83D002068211D00F0ADFC012023
:1042400084F8480084F83E0084F83F0084F8400079
:1042500084F8410084F8420084F8430084F8440064
:1042600084F8450084F8460084F8470084F83D004F
:10427000002010BD012070477047000000000000C2
:1042800090F83D10012927D1022180F83D100168E6
:104290004DF6FF70C4F200008142C86840F0010092
:1042A000C8601BDC40F2FF70C4F2000081422DDDCB
:1042B00040F60000C4F2000081423DD040F60040CC
:1042C000C4F20000814237D041F60000C4F2000081
:1042D000814231D03CE000BF012070474FF6FF70B3
:1042E000C4F2000081421BDD0020C4F201008142C3
:1042F00022D044F20000C4F2010081421CD040F2FE
:104300000040C4F20100814216D021E0B1F1804F9B
:1043100012D040F20040C4F2000081420CD017E0FD
:104320004EF20000C4F20000814205D04EF200407F
:10433000C4F2000081420BD107228868C0F201025A
:1043400002400020062A18BFB2F5803F00D1704716
:10435000086840F00100086000207047000000007D
:104360007047000000000000F0B581B0044600680E
:10437000C5680669B10717D515F0020114D06FF0B2
:1043800002010161012121778069800704D0204664
:10439000FFF7E6FF06E000BF204600F09DF820464C
:1043A00000F09EF800202077700719D515F0040062
:1043B00016D020686FF00401016102212177806925
:1043C00010F4407F04D02046FFF7CAFF06E000BF8C
:1043D000204600F081F8204600F082F80020207787
:1043E000300717D515F0080014D020686FF00801C9
:1043F000016104212177C069800703D02046FFF7BF
:10440000AFFF05E0204600F067F8204600F068F8AE
:1044100000202077F00619D515F0100016D020687E
:104420006FF01001016108212177C06910F4407F0D
:1044300004D02046FFF794FF06E000BF204600F0BE
:104440004BF8204600F04CF800202077F00718BF0A
:1044500015F0010006D020686FF0010101612046CF
:1044600000F042F805F0800716F4025F18BF002F35
:1044700002D1F00509D410E020686FF40251016107
:104480002046FFF7C1FEF00507D537B120686FF46D
:10449000807101612046FFF7B3FE700609D515F063
:1044A000400006D020686FF040010161204600F016
:1044B00027F8B0060CD515F0200009D020686FF061
:1044C00020010161204601B0BDE8F040FFF7A0BE29
:1044D00001B0F0BD000000007047000000000000C7
:1044E000704700000000000041F200010068C4F2C3
:1044F0000001884218BF7047FDF726BC000000008D
:104500007047000000000000FEE70000000000000F
:1045100010B540F204244DF20040C2F20044C4F24F
:1045200000004FF440714FF0010C20600020C4E9FE
:10453000021040F201112182032262610A231D212F
:10454000C4E9071362620521A1620E22C4E90B21AE
:10455000C4E90D0CE063062121640421C4E91110B3
:10456000C4E91310C4E91510E0652022C4E918203D
:10457000204684F812C0A361A166FCF789FD08B14A
:10458000FCF756F8206E50B9202020662046FCF734
:104590004BFA2046FCF77CFD08B1FCF749F840F2E5
:1045A00004200021C2F20040FCF72AFA002808BFCC
:1045B00010BDBDE81040FCF73BB800000000000053
:1045C00010B544F6691049F27802C0F60000C0F652
:1045D0000002002102F0A8FA40F2780448F6FC72CA
:1045E000C2F20044C0F600020021206040F23960AF
:1045F000C0F6000002F098FA606047F2297049F2B4
:104600009C02C0F60000C0F60002002102F08CFA05
:10461000A06010BD0000000083B044F2E040C5F689
:104620000200016841F080010160016801F0800131
:1046300002910299016841F008010160016801F0EE
:10464000080101910199016841F0010101600068D0
:1046500000F001000090009803B0704700000000D7
:10466000FEE7000000000000FEE700000000000080
:1046700040F2A420C2F20040FDF7DEBD00000000C1
:10468000EFF30980BFF36F8F154B1A681EF0100F00
:1046900008BF20ED108A20E9F04F10602DE90900D5
:1046A0004FF0500080F31188BFF34F8FBFF36F8F2F
:1046B00003F0DAFD4FF0000080F31188BDE8090037
:1046C00019680868B0E8F04F1EF0100F08BFB0EC92
:1046D000108A80F30988BFF36F8F704700BF00BF57
:1046E0001C0B002400000000F0B581B044F22C4700
:1046F000C5F6020757F8042C02F00302032A03D17F
:10470000012001B0F0BD00BF054657F82C0C0C4647
:1047100020F0806047F82C0CFDF70EFB064600BF2A
:1047200057F82C0C000105D5FDF706FB801B02286D
:10473000F6D964E057F8040CEE6895E80E0020F412
:104740007C30012C40EA0130A2F101016FF35F21BE
:104750004FF47E4202EB432247F8040C92B24FF032
:10476000FE4302EB01004FF4FE012A6901EB064112
:1047700001F4FE0103EB0262084402F0FE4108442A
:10478000F8603868696920F0C00040EA01003860CC
:104790003868A96920F0200040EA010038603868D4
:1047A0004FF6F87120F0100038603869EA6920EAA5
:1047B00001004FF4001140EAC2003861386808BFB8
:1047C0004FF4801140F01000002C386008BF4FF407
:1047D000002138680843386057F82C0C40F080609E
:1047E00047F82C0CFDF7A8FA044600BF57F82C0C2C
:1047F000000107D4FDF7A0FA001B0328F6D303201D
:1048000001B0F0BD002001B0F0BD000000000000CC
:10481000F0B581B044F22C47C5F6020757F8042CD6
:1048200002F00302032A03D1012001B0F0BD00BF52
:10483000054657F82C0C0C4620F0805047F82C0CFD
:10484000FDF77AFA064600BF57F82C0C800005D514
:10485000FDF772FA801B0228F6D964E057F8040CC1
:10486000EE6895E80E0020F07C70012C40EA0150C3
:10487000A2F101016FF35F214FF47E4202EB43226C
:1048800047F8040C92B24FF0FE4302EB01004FF4E4
:10489000FE012A6901EB064101F4FE0103EB02620D
:1048A000084402F0FE41084478613868696920F4E0
:1048B000406040EA010038603868A96920F400705F
:1048C00040EA0100386038684FF6F87120F48070D3
:1048D0003860B869EA6920EA01004FF0807140EA67
:1048E000C200B861386808BF4FF4000140F480701E
:1048F000002C386008BF4FF48001386808433860E6
:1049000057F82C0C40F0805047F82C0CFDF714FAA7
:10491000044600BF57F82C0C800007D4FDF70CFAB2
:10492000001B0328F6D3032001B0F0BD002001B026
:10493000F0BD0000000000000000000000000000CA
:10494000074B19680868B0E8F04F80F30988BFF397
:104950006F8F4FF0000080F31188704700BF00BFD9
:104960001C0B00240000000010B54EF6FC5040F275
:104970005C14CEF20000C2F20044016841F0807184
:10498000016041F200000021CEF2000041600168A8
:1049900041F0010101600021204601F045FE206840
:1049A000FCF73EFE08B1FBF743FE01212068C0F290
:1049B00080310022FBF7CCFE40F27800C2F20040CA
:1049C0000068BDE8104002F047B900000000000098
:1049D00080B54EF21000CEF20000006804F08CF8B2
:1049E000012808BF80BDBDE8804003F081BD000004
:1049F000B0B59CB044F6180409A84C21C5F60204D1
:104A0000FBF75FFD02200025CDE90755CDE90555EF
:104A1000CDE90355CDE90155FEF7B2F900952068BF
:104A200020F440402060206800F44040009000984E
:104A30002068800409D4206880045CBF20685FEA95
:104A4000804002D420688004F2D5012009904FF400
:104A500080310A9102212822CDE9152004201491E9
:104A6000CDE917010C20199009A80024CDE91211F5
:104A7000CDE91A44FFF72CF910B172B6FEE700BF7A
:104A80003F20019003204FF48061CDE9020408200B
:104A900004904020CDE90500CDE9071001A80321CD
:104AA000FEF7D6FE10B172B6FEE700BF1CB0B0BD77
:104AB0004EF6885042F2000CCEF20000C5F2002CF7
:104AC000026842F470020260DCF8000000F00F009F
:104AD000062806D8DCF80000072262F30300CCF8B1
:104AE000000044F200404EF67F51C5F60200CEF6BB
:104AF000F621026842F001020260002202610368AE
:104B000019400160DCF80010090706D5DCF8001038
:104B1000072363F30301CCF8001040F20021826107
:104B2000C261C0F20221026281620021C0F2FF1163
:104B3000C16240F28021C0F20111016342638163CE
:104B4000C26301644264016821F48021016002664D
:104B5000D0F8D410C90448BF7047D0F8D41043F23D
:104B6000D20241F48051C0F8D41044F20001C5F2E1
:104B700000210A60D0F8D41021F48051C0F8D4107C
:104B8000704700000000000040F28870C2F2004050
:104B9000FFF7EABB0000000010B540F6FF32D0F886
:104BA00000E0C4F20002904210DCB0F1804F1ED051
:104BB00040F20043C4F20003984218D040F60003CC
:104BC000C4F20003984212D016E000BF40F6004342
:104BD000C4F2000398420AD040F20043C4F2010339
:104BE000984204D00023C4F20103984204D12EF06D
:104BF00070024B6843EA020E4EF2FF3343F6FF7C2D
:104C0000C4F20003C4F2010C984213DD60452BDCB2
:104C10004EF20043C4F20003984242D00023C4F293
:104C2000010398423DD040F20043C4F20103984290
:104C300037D03BE040F2FF73C4F20003984227DD17
:104C400040F60003C4F2000398422AD040F6004325
:104C5000C4F20003984224D04EF20003C4F20003D1
:104C600098421ED022E000BF44F20003C4F20103C8
:104C7000984216D044F60003C4F20103984210D0C3
:104C800044F20043C4F2010398420AD00EE000BF90
:104C9000B0F1804F05D040F20043C4F200039842C7
:104CA00004D12EF44072CB6843EA020E4B69604592
:104CB0000A688C68C462826212DD44F20002C4F2A7
:104CC0000102904217D044F60002C4F20102904261
:104CD00011D044F20042C4F2010290420BD00CE029
:104CE0000022C4F20102904205D040F20042C4F218
:104CF0000102904201D109690163016841F0040198
:104D00000160012141612EF080011943016010BD55
:104D100080B5D0F8B82252689047002818BF032009
:104D200080BD00000000000000207047000000006F
:104D3000002070470000000080B513460A4600219D
:104D400000F052F9002080BD80B513460A460021CC
:104D500000F01EFA002080BD80B50521C0F8941235
:104D600000210022002300F03FF9002080BD000058
:104D700080B58C460223C0F894321346416200216C
:104D8000C0E90522624600F003FA002080BD000061
:104D900080B50421C0F8941200210022002300F005
:104DA000F7F9002080BD000080B5D0F8C802FDF7FB
:104DB0005FF940F20032C100C0F20132032822FA4A
:104DC00001F188BF0321C8B280BD000000000000CF
:104DD000B0B589B190F89C22032A53D1D0F8B822FB
:104DE0005269002A4ED00023C0F8D43290470028E0
:104DF00008BF0020B0BD00BFD0F8941202293BD1FB
:104E0000038C816999420FD9CA1A416A1944826197
:104E100041620446FFF798FF00210022002320464C
:104E200000F0E2F827E000BF10D142698A420DD3BA
:104E3000D0F898128A4209D20021002200250446A7
:104E4000FFF782FFC4F89852E6E700BF90F89C1283
:104E5000032909D1D0F8B812C96829B10022C0F8D5
:104E6000D4220446884720468021044600F06CF98D
:104E70002046FFF771FF204690F8A01211B10021E3
:104E800080F8A0120020B0BD10B579B190F89C2236
:104E9000032A22D1D0F8B8229269F2B10023C0F8D7
:104EA000D4329047002808BF002010BDD0F89412DB
:104EB000032912D1B0F86021D0F8581191420FD9CE
:104EC0008B1AD0F864111144C0F858319342C0F8DD
:104ED000641188BF1A46FFF72FFF002010BD00BFE6
:104EE00090F89C12032909D1D0F8B812096929B1A8
:104EF0000022C0F8D422044688472046FFF748FF26
:104F0000002010BD000000000020704700000000DD
:104F1000012180F89C12D0F8B8223AB180B501790D
:104F200052689047002818BF032080BD00207047BA
:104F300001F07F02D0F8C80201EBC10349B202EBD5
:104F4000C202002900EB820200EB830000F256202F
:104F500048BF02F116000078704700000000000012
:104F6000D0F8D42200EB8202D2F8B82262B190F8D5
:104F70009C32032B06D1126A22B180B590470020E3
:104F800080BD00BF00207047032070470000000074
:104F9000D0F8D42200EB8202D2F8B82262B190F8A5
:104FA0009C32032B06D1526A22B180B59047002073
:104FB00080BD00BF00207047032070470000000044
:104FC00080B59446D0F8C8021A466346FDF780F8CB
:104FD00040F20032C100C0F20132032822FA01F18E
:104FE00088BF0321C8B280BD80B5D0F8C802FDF7E4
:104FF000AFF840F20032C100C0F20132032822FAB9
:1050000001F188BF0321C8B280BD0000000000008C
:10501000F0B581B0012680F89C620025C0F894525A
:1050200004464560D0F8B802C4F8A45284F8A052EF
:1050300040B1426832B10021204690470546002821
:1050400018BF032500210022402320464027FFF7F8
:10505000B7FF802100224023204684F86361A4F832
:105060006071FFF7ADFF84F823602846278401B004
:10507000F0BD00000000000090F89C12042903D14C
:1050800090F89D1280F89C120020704700000000EC
:1050900090F89C12032908D1D0F8B81229B1C96937
:1050A00019B180B58847BDE88040002070470000F6
:1050B000024600201174704780B5D0F8C802FDF791
:1050C00027FE40F20032C100C0F20132032822FA6A
:1050D00001F188BF0321C8B280BD000000000000BC
:1050E000B0B500F2AA240546204600F065F801217B
:1050F000C5F8941295F8AA12B5F8B03201F01F0263
:10510000C5F89832022A0FD0012A07D092B9284652
:105110002146BDE8B04000F063B800BF28462146F4
:10512000BDE8B04000F0D0BA28462146BDE8B04006
:1051300000F01ABA01F080012846BDE8B04000F046
:1051400003B800000000000080B5D0F8C802FDF7E9
:105150001BF840F20032C100C0F20132032822FAEB
:1051600001F188BF0321C8B280BD0000000000002B
:10517000014690F89C02042803D091F89C0281F823
:105180009D020020042281F89C227047000000004C
:1051900080B5D0F8C802FDF72FF840F20032C10008
:1051A000C0F20132032822FA01F188BF0321C8B2FC
:1051B00080BD0000000000000A7802704A7842704A
:1051C0004A8842808A888280C988C18070470000EE
:1051D000D0F8B82212B11268104700BF0020704703
:1051E0000A78C2F34112531E022B07D2D0F8D42200
:1051F00000EB8202D2F8B8229268104770B582B0F4
:10520000002A40F0C9804A78092A00F2C580DFE808
:1052100002F0052FC357C3617DC31B4190F89C2248
:10522000013A022A00F2B880C988022940F0B4800D
:10523000D0F8A41203220029014608BF012241F838
:105240000C2F02223CE100BFC988012940F0A48054
:1052500090F89C124A1E022A80F098800146012292
:10526000002441F8084FFFF783FD204602B070BDCF
:1052700090F89C22013A022A00F28E80498800248C
:10528000012940F09280C0F8A442FFF781FD20463A
:1052900002B070BD498840F20025C2F2004511F00D
:1052A000FE0F297050D080210446FFF74DFF0021EA
:1052B0002046FFF749FF0324204602B070BD00BF1F
:1052C0004A88022A5ED0012A40F066800121C0F897
:1052D000A412FCE08A88002A5ED1CA88002A5BD129
:1052E0004D887F2D58D890F89C12032954D0E9B2EC
:1052F00080F89E520446FFF7DFFE20462646FFF761
:1053000047FD002D00F02681022024E14A884FF05D
:10531000FF330026ADF8066003EB12230E2B00F2DC
:105320007D80DFE803F0095D457B7B6D797B7B7BCE
:105330007B7B7B7B510000BF0D46D0F8B412044646
:10534000007C0A6847E000BF90F89C22032A69D0DD
:10535000022A40F08F800A0600F0B98001F00102B5
:105360004260C9B20546FFF733FF002800F0D28043
:10537000044680212846FFF7E7FE00212846FFF774
:10538000E3FE70E0497980F8A012A0E0032903D180
:10539000011D012294E000BF80210546FFF7D4FEE5
:1053A000002128460024FFF7CFFE204602B070BD42
:1053B000D2B2052A32D8DFE802F003C3BBBFB7C7B9
:1053C000D0F8B422526802E0D0F8B422D2692AB3ED
:1053D0000446007C0D460DF106019047014664E04D
:1053E0000D46017C0446D0F8B80200290CBF816A42
:1053F000C16A0DF1060088470146022054E000BF53
:10540000027C5AB90446D0F8B8020D46416B0DF142
:1054100006008847014648E0027CDAB38021044652
:105420005EE000BF0A0665D001F0010241689142CA
:105430004DD0C9B20446FFF76BFC29782046616065
:105440002546FFF7C5FE002800F082800446802133
:105450002846FFF779FE00212846FFF775FE2979D7
:105460002846FFF755FC022085F89C02204602B032
:1054700070BD00BF80210446FFF766FE0021204674
:10548000FFF762FE29782046FFF742FC03242046FE
:1054900002B070BD0446D0F8B8020D46016B0DF1A4
:1054A00006008847014607204870EA8872B1BDF8B7
:1054B00006309BB19342204638BF1A46ADF806200D
:1054C000FFF756FC0024204602B070BD2046FFF7CF
:1054D0005FFC0024204602B070BD00BF8021204642
:1054E000FFF732FE00212046FFF72EFE0024204663
:1054F00002B070BD022180F89C120021002444609B
:105500000546FFF705FC2846FFF742FC204602B09F
:1055100070BD00BF2846FFF73BFC032085F89C02C6
:105520000024204602B070BDD0F8B42252694EE784
:10553000D0F8B422D2684AE7D0F8B422126946E71C
:10554000D0F8B422926842E7D0F8B42292693EE7DC
:105550002846BCE7012086F89C020024204602B0C1
:1055600070BD00000000000070B50D4609780446CB
:10557000C1F341122979531E022B07D22046FFF7AF
:10558000D3FB002855D0002070BD00BF9ABB6878BF
:1055900040B3012814D003282DD194F89C0203288D
:1055A00012D1688838B911F07F0004D0E88810B9AA
:1055B0002046FFF7C9FD2046FFF7EAFB002070BD3B
:1055C00094F89C02032821D0022814D1480612D056
:1055D0002046FFF7B9FD80212046FFF7B5FD0020EA
:1055E00070BD00BF94F89C0203282FD0022808BF8A
:1055F0005FEA416058D080212046FFF7A5FD0021D9
:105600002046FFF7A1FD002070BD00BF688800287C
:10561000B9D10E46480603D020463146FFF7C4FBF9
:105620002046FFF7B5FB20463146FFF77DFB0028FB
:10563000A9D1D4F8B80282680020002AC4F8D402A4
:10564000A1D020462946BDE87040104701F00F0068
:10565000802900EB800004EB800003D290F8630106
:1056600002E000BF90F823000028C4D001F07F00C2
:1056700001EB8102802900EB800004EB800000F147
:10568000140504EB820038BF00F5AA75480605D062
:105690002046FFF74DFC08B1012000E0002005F195
:1056A0000E01A8730AE000BF08064FF0140058BFAF
:1056B0004FF4AA702118002001F80E0F0222204694
:1056C000FFF756FB002070BDB0B50A7802F060020B
:1056D000602A08D090F89C22013A022A03D88A88CE
:1056E00012F0FE0F0AD080210546FFF72DFD0021A4
:1056F00028460024FFF728FD2046B0BD0C4605468D
:10570000D1B2FFF715FB08B10320B0BDD5F8B81230
:105710008A68002AF8D028460021C5F8D41221460C
:105720009047E1880446002908BF002CE4D12846B0
:10573000FFF72EFB0020B0BD10B50C784A78D0F8EA
:105740001CC804F00F034FEA441E012A18D101229D
:105750009A4000EB0E0342EA0C02C0F81C28D3F872
:105760000009000429D403F510600A7989686FF3F1
:10577000DF21036841EA824143EA8452114317E082
:105780004FF4803202FA03F300EB0E0243EA0C03FB
:10579000C0F81C38D2F8000B00040ED40B7902F5C7
:1057A000306089686FF3DF21026841EA8341114369
:1057B00041F0805141F400410160002010BD000023
:1057C0000146D0F8000940F2FF729043C1F8000989
:1057D000D1F80428002042F48072C1F804287047F0
:1057E00043F20B03D0F840C0C4F654739C4503D376
:1057F000D0F8003B002B1ED40023C0F8103BD0F89B
:10580000103B012943F40023C0F8103BD0F8103BB3
:1058100043F01803C0F8103BD0F8103B43F0C041F0
:10582000C0F8101B07D1C0F8142BD0F8001B41F0B2
:105830008021C0F8001B002070470000000000001D
:105840004A780B78012A4FEA431210440ED1D0F85F
:10585000002922F40012C0F80029097901F0FE01A4
:10586000022914D100F510600DE000BFD0F8002B24
:1058700022F40012C0F8002B097901F0FE01022980
:1058800005D100F53060016841F0805101600020D1
:1058900070470000000000000A784B785101012B8E
:1058A000084407D1D0F80019002900F5106107D588
:1058B0000CE000BFD0F8001B002900F5306105D4D2
:1058C000002A1EBF086820F0804008600A68002097
:1058D00042F400120A607047F0B54B78002691F848
:1058E00000C04FF6FF75012BCFF6F876CEF2070514
:1058F0002CD100EB4C1E0C69002C0EF51063DEF869
:1059000010794FD03E401E611E69BCF1000F05EAC0
:1059100006051D618E6800F09D80A5191F69013D77
:10592000B5FBF6F50026C1F6F87606EAC5463E4315
:105930001E610E79012E40F09A804FF0C0471E691B
:1059400007EA457526F0C0461E618DE000EB4C1756
:105950004FF6FF74C0F20704BCF1000FD7F8103BFC
:1059600003EA0603C7F8103BD7F8106B07F530635E
:1059700006EA0506C7F8106B8E680D693CD0002D4D
:105980003ED0AF19013FB7FBF6F7BDB26E4300251D
:105990000E62C1F6F87505EAC7471D6926402F4318
:1059A0001F6134E007EA05041C611C6944F400240B
:1059B0001C611C6904EA06050024012A1D615ED0F1
:1059C00000F510634FEA4C169F5947F004479F516A
:1059D0000F79012F34D1D0F80878FF054FF08057A8
:1059E00058BF4FF00057F558002A45EA0702F25019
:1059F00062D00020F0BD00BF002D18BF0E610E6206
:105A000006EA04071E6937431F614FF400261F6929
:105A1000012A47EA06021A6103D1CA68002A18BFA0
:105A20005A61097901293BD1D0F80808C0054FF027
:105A3000805058BF4FF000501968084318602FE09D
:105A4000002CD6D00CF00F01012202FA01F100F671
:105A5000340327E0B44205D90E614FF400253446E3
:105A600002E000BF4FF400251E6935431D61254645
:105A70001E696FF3DF453543012A1D61A0D1CA6954
:105A8000002A18BFCEF814290979012908D1D0F8C5
:105A90000808C005DEF800090AD440F00050CDE740
:105AA0004FF004411868084318600020F0BD00BFA3
:105AB00040F08050C2E700BFA2B2002A99D0D61CA5
:105AC0004FF0FF32C96800F5805002EB96034FEAB1
:105AD0000C32032BC6F381030ED3B70827F003065D
