:020000040800F2
:10000000605B00209D030008C1750008B173000803
:10001000B97500083107000851A100080000000070
:10002000000000000000000000000000117A00083D
:10003000790B000800000000E1750008A17A0008B3
:10004000BB030008BB030008BB030008BB03000898
:10005000BB030008BB030008BB030008BB03000888
:10006000BB030008BB030008BB030008BB03000878
:1000700039070008BB030008BB030008BB030008E6
:10008000BB030008BB030008BB030008BB03000858
:10009000BB030008BB030008BB030008BB03000848
:1000A000BB030008BB030008BB030008BB03000838
:1000B000BB030008BB030008BB030008BB03000828
:1000C000BB030008BB030008BB030008BB03000818
:1000D000BB030008BB030008BB030008BB03000808
:1000E000BB030008BB03000800000000BB030008BE
:1000F000BB030008BB030008BB030008BB030008E8
:10010000BB030008BB030008BB030008BB030008D7
:10011000BB030008E17D0008597C0008BB03000810
:10012000BB030008BB030008BB030008BB030008B7
:10013000BB030008BB030008BB030008BB030008A7
:1001400000000000000000000000000000000000AF
:10015000BB030008BB030008BB030008BB03000887
:10016000BB030008BB030008BB030008BB03000877
:10017000BB030008C9750008BB03000800000000AD
:10018000BB030008BB030008BB030008BB03000857
:10019000BB030008BB030008BB030008BB03000847
:1001A000BB030008BB030008BB03000800000000FD
:1001B000BB030008BB030008BB030008BB03000827
:1001C000BB030008BB0300080000000000000000A3
:1001D0000000000000000000BB0300080000000059
:1001E000000000000000000000000000000000000F
:1001F0000000000000000000BB030008BB03000873
:10020000BB030008BB03000800000000BB0300089C
:10021000BB030008BB030008BB030008BB030008C6
:10022000BB03000800000000BB0300080000000042
:10023000BB030008BB03000800000000BB0300086C
:10024000BB030008BB030008BB030008BB03000896
:10025000BB030008BB030008BB030008BB03000886
:10026000BB030008BB030008BB030008BB03000876
:10027000BB030008BB030008BB030008000000002C
:10028000BB030008BB030008BB030008BB03000856
:1002900000000000BB030008BB03000800000000D2
:1002A00000000000BB030008BB030008BB030008FC
:1002B000BB030008BB030008BB030008810C000857
:1002C000910C0008BB030008BB03000800F002F813
:1002D00000F054F814A696E8000CB244B344DA4592
:1002E00001D100F04BF8BAE80F000FA696E83000F5
:1002F000A5EB040504EB0607AAEB0704A7F1010729
:100300004FEA15154FEA3414A4F10104AC4201D3AD
:1003100000F034F813F0010F18BFFB1A43F001038B
:1003200000F001F8DBE7184714DF000044DF0000AD
:10033000103A24BF78C878C1FAD8520724BF30C811
:1003400030C144BF04680C60704700007047000073
:100350000023002400250026103A28BF78C1FBD8CE
:10036000520728BF30C148BF0B6070471FB50DF062
:1003700098FD00F049F91FBD10B510BD00F0A0F9BF
:100380001146FFF7F3FF0AF02BFE00F0BEF903B4AD
:10039000FFF7F2FF03BC00F0C1F900000A488047F4
:1003A0000A4880470A480047FEE7FEE7FEE7FEE707
:1003B000FEE7FEE7FEE7FEE7FEE7FEE70548064943
:1003C000064A074B70470000510C0008817B00086B
:1003D000CD02000860550020605B002060570020BF
:1003E0006057002053EA020C00F069802DE9F04BC1
:1003F0004FF00006002B1FBFB3FA83F503FA05F494
:1004000024FA05F65E4012BF1643B2FA82F502FAEC
:1004100005F4C5F120051EBF22FA05FC44EA0C04D0
:10042000203556EA044C4FEA144418BF641C4FF0C0
:1004300000084FF00009904271EB030C39D30029FA
:1004400019BFB1FA81F701FA07F6B0FA80F700FA9E
:1004500007F6C7F120071EBF20FA07FC46EA0C0684
:100460002037B6FBF4FCA7EB0507103F07F01F0B86
:10047000CBF120062CFA06F60CFA0BFB44BFB34670
:100480000026202FA4BF5E464FF0000B5BEA060C4F
:1004900008BF4FF0010B19EB0B0948EB0608ABFB4B
:1004A000027C06FB02CC0BFB03CCC01B71EB0C01E6
:1004B000C1E70B46024641464846BDE8F08B13B5FE
:1004C000084318BF4FF0FF300146AFF30080BDE88E
:1004D0001C407047032A40F2308010F0030C00F0FB
:1004E000158011F8013BBCF1020F624498BF11F86E
:1004F00001CB00F8013B38BF11F8013BA2F1040227
:1005000098BF00F801CB38BF00F8013B11F003039E
:1005100000F09B80083AC0F0088051F8043B083A8C
:1005200051F804CBA0E80810F5E7121D5CBF51F8A4
:10053000043B40F8043BAFF30080D20724BF11F81E
:10054000013B11F801CB48BF11F8012B24BF00F883
:10055000013B00F801CB48BF00F8012B704702F0C7
:10056000FF0343EA032242EA024200F024B84FF0BC
:1005700000020429C0F0128010F0030C00F01B8070
:10058000CCF1040CBCF1020F18BF00F8012BA8BF7E
:1005900020F8022BA1EB0C0100F00DB85FEAC17C42
:1005A00024BF00F8012B00F8012B48BF00F8012BF5
:1005B00070474FF0000200B5134694469646203926
:1005C00022BFA0E80C50A0E80C50B1F12001BFF40C
:1005D000F7AF090728BFA0E80C5048BF0CC05DF872
:1005E00004EB890028BF40F8042B08BF704748BFC0
:1005F00020F8022B11F0804F18BF00F8012B704734
:10060000704770477047000008487CB578440090F8
:1006100007487844009C0546019004E020460168A4
:1006200008448047241DAC42F8D17CBD5CDC00004E
:100630005ADC000010B500F03BF8006810BD10B5A2
:10064000044600F035F8046010BD10B5203AC0F043
:100650000B80B1E81850A0E81850B1E81850A0E895
:100660001850203ABFF4F5AF5FEA027C24BFB1E82E
:100670001850A0E8185044BF18C918C0BDE8104071
:100680005FEA827C24BF51F8043B40F8043B08BF7A
:100690007047D20728BF31F8023B48BF11F8012B41
:1006A00028BF20F8023B48BF00F8012B704700002C
:1006B00000487047180000200048704718000020CC
:1006C0007546FFF7F9FFAE4605006946534620F030
:1006D0000700854618B020B5FFF770FEBDE8204042
:1006E0004FF000064FF000074FF000084FF0000BEE
:1006F000AC46ACE8C009ACE8C009ACE8C009ACE85D
:10070000C00921F007018D46704710B50446AFF3CC
:1007100000802046BDE81040FFF739BE014918208F
:10072000ABBEFEE72600020070470000000000009C
:10073000FEE700000000000040F25C20C2F2000072
:1007400000F0A2BE0000000040F20F42D0F800C04E
:10075000C4F20202944511DC6F22C4F202029445F5
:1007600022DC3F22C4F20202944539DC1022C4F29A
:10077000020294455AD0282254E000BF40F26F4252
:10078000C4F2020294451BDC40F23F42C4F2020272
:1007900094452DDC40F21042C4F20202944545D04B
:1007A00040F228423EE000BF9F22C4F2020294457C
:1007B00028DC7022C4F20202944537D0882231E04E
:1007C00040F29F42C4F20202944523DC40F27042A0
:1007D000C4F20202944529D040F2884222E000BFD0
:1007E0004022C4F20202944520D058221AE000BFF1
:1007F00040F24042C4F20202944517D040F25842FF
:1008000010E000BFA022C4F2020294450ED0B8222C
:1008100008E000BF40F2B842C4F20202944505D09D
:1008200040F2A042C4F20202944517D10CF0F80243
:100830004AF6AB23103ACAF6AA23A2FB03310AA355
:100840005F2AC1F302115B5C40F2FF312CEA010127
:10085000C36588BF04318165084670472CF0FF01ED
:1008600081650846704700BF000610160006101686
:1008700070B540F26F44D0F800C0C4F20204D0F862
:1008800058E0A4451ADC9F25C4F20205AC4533DCD0
:100890005725C4F20205AC455ADC1025C4F2020506
:1008A000AC4500F098802825C4F20205AC4500F064
:1008B00092804025C4F202058AE000BF45F22F4530
:1008C000C5F60205AC452DDC40F2B745C4F2020581
:1008D000AC454BDC40F27045C4F20205AC457AD021
:1008E00040F28845C4F20205AC4574D040F2A04500
:1008F000C4F202056CE000BF40F22745C4F20205D5
:10090000AC4543DCA025C4F20205AC4563D0B82554
:10091000C4F20205AC455ED040F21045C4F20205B7
:1009200056E000BF45F26B45C5F60205AC453FDC1D
:1009300045F23045C5F60205AC454CD045F244457C
:10094000C5F60205AC4546D045F258453EE000BF2D
:100950005825C4F20205AC453DD07025C4F202050D
:10096000AC4538D08825C4F2020531E040F2B845E4
:10097000C4F20205AC452ED045F20845C5F6020585
:10098000AC4528D045F21C4520E000BF40F2284588
:10099000C4F20205AC451ED040F24045C4F2020547
:1009A000AC4518D040F25845C4F2020510E000BF33
:1009B00045F26C45C5F60205AC450CD045F29445B0
:1009C000C5F60205AC4506D045F28045C5F60205E0
:1009D000AC4540F0D080456EC66E002E866E6E60CF
:1009E0001CBFD0E91C566E60A44515DC9F24C4F2E0
:1009F0000204A4452CDC5724C4F20204A44551DCB3
:100A00001024C4F20204A4457AD02824C4F20204BB
:100A1000A44575D040246FE045F22F44C5F602048A
:100A2000A44529DC40F2B744C4F20204A44545DCE5
:100A300040F27044C4F20204A44561D040F28844FC
:100A4000C4F20204A4455BD040F2A04454E000BFCD
:100A500040F22744C4F20204A4453FDCA024C4F2BF
:100A60000204A4454CD0B824C4F20204A44547D0E3
:100A700040F2104440E000BF45F26B44C5F602046A
:100A8000A44555DC45F23044C5F60204A44561D0C6
:100A900045F24444C5F60204A4455BD045F25844EF
:100AA00054E000BF5824C4F20204A44528D07024A6
:100AB000C4F20204A44523D088241DE040F2B844C7
:100AC000C4F20204A4451BD045F20844C5F6020452
:100AD000A4453FD045F21C4438E000BF40F2284412
:100AE000C4F20204A4450BD040F24044C4F2020414
:100AF000A44505D040F25844C4F20204A4453AD1BA
:100B00008468C06D00F01F003F2505FA00F0CEF8A4
:100B10000800DCF80000402C20F48020CCF8000015
:100B2000CCF8043023D1CCF80820CCF80C1070BDE0
:100B300045F26C44C5F60204A4450BD045F280444E
:100B4000C5F60204A44505D045F29444C5F6020456
:100B5000A44510D1C46D012504F01F04806805FA76
:100B600004F4CEF804404028CCF80430DBD0CCF8B4
:100B70000810CCF80C2070BD704700000000000089
:100B800072B600BFFEE7000040F6381840F6C41900
:100B900040F6502B40F6DC2740F6683440F6F4353A
:100BA000C2F20008C2F20009C2F2000BC2F2000752
:100BB000C2F20004C2F20005032002214FF0FF320E
:100BC0000AF0B2FAC10703D14FF0000A2CE000BFCF
:100BD00040F280010646C2F20001096808460AF0A8
:100BE000FFFB3046FD21064640460AF025F9FD216F
:100BF00048460AF021F9FD2158460AF01DF9FD2169
:100C000038460AF019F901204FF0010A0AF014FAE7
:100C1000FD2120460AF010F9FD2128460AF00CF9C2
:100C200001200AF009FA3046032801D103F0D4F973
:100C30005FEACA70C0D003E0032801D103F0CCF909
:100C40000320022100220AF06FFAC107F4D0C9E79D
:100C500044F60400C5F60200816841F0020181609B
:100C60000168890409D4016889045CBF01685FEAEE
:100C7000814102D401688904F2D570470000000068
:100C800040F2D420C2F2000002F03EB800000000A2
:100C900040F2D420C2F2000002F036B8000000009A
:100CA0002DE9F041044603F023F83CB3054694F8DF
:100CB0003500022826D1276840F20F46C4F202060A
:100CC00040F26F483868B74220F0010038606FF09A
:100CD0000E00C4F202081DDC6F21C4F202018F4233
:100CE0002ADC3F21C4F202018F4241DC1021C4F210
:100CF00002018F4263D028215CE000BF0120BDE8E3
:100D0000F08100BF802060650120002184F834104C
:100D1000BDE8F08147451BDC40F23F41C4F20201CF
:100D20008F422DDC40F21041C4F202018F4246D0C6
:100D300040F228413EE000BF9F21C4F202018F42F1
:100D400028DC7021C4F202018F4238D0882131E0C2
:100D500040F29F41C4F202018F4223DC40F2704115
:100D6000C4F202018F422AD040F2884122E000BF43
:100D70004021C4F202018F4221D058211AE000BF65
:100D800040F24041C4F202018F4218D040F2584173
:100D900010E000BFA021C4F202018F420FD0B821A1
:100DA00008E000BF40F2B841C4F202018F4206D011
:100DB00040F2A041C4F202018F42394607D13946C0
:100DC000386820F01E0041F8140B6FF080000A68AC
:100DD000474500EA020008601ADC9F20C4F20200C6
:100DE000874233DC5720C4F2020087425ADC1020CD
:100DF000C4F20200874200F097802820C4F202006B
:100E0000874200F091804020C4F202008AE000BFD7
:100E100045F22F40C5F6020087422DDC40F2B74074
:100E2000C4F2020087424BDC40F27040C4F2020080
:100E3000874279D040F28840C4F20200874273D0E2
:100E400040F2A040C4F202006CE000BF40F2274034
:100E5000C4F20200874243DCA020C4F202008742B1
:100E600062D0B820C4F2020087425DD040F2104048
:100E7000C4F2020056E000BF45F26B40C5F6020026
:100E800087423FDC45F23040C5F6020087424BD036
:100E900045F24440C5F60200874245D045F258402D
:100EA0003EE000BF5820C4F2020087423CD07020D0
:100EB000C4F20200874237D08820C4F2020031E039
:100EC00040F2B840C4F2020087422DD045F20840FB
:100ED000C5F60200874227D045F21C4020E000BF43
:100EE00040F22840C4F2020087421DD040F2404048
:100EF000C4F20200874217D040F25840C4F2020008
:100F000010E000BF45F26C40C5F6020087420BD0EE
:100F100045F29440C5F60200874205D045F2804074
:100F2000C5F60200874205D1206E016821F4807168
:100F3000016000BF3868C00710D002F0D9FE401B26
:100F40000628F7D320206065032084F835000120AF
:100F5000002184F83410BDE8F08100BF206808212A
:100F6000B0424FF03F0211DC6F23C4F202039842FB
:100F70001EDC3F23C4F20203984235DC1023C4F286
:100F80000203984257D0282350E000BF40451BDCA5
:100F900040F23F43C4F2020398422DDC40F210437A
:100FA000C4F20203984246D040F228433EE000BF1C
:100FB0009F23C4F20203984228DC7023C4F2020388
:100FC000984238D0882331E040F29F43C4F20203B4
:100FD000984223DC40F27043C4F2020398422AD0C4
:100FE00040F2884322E000BF4023C4F2020398424B
:100FF00021D058231AE000BF40F24043C4F202035C
:10100000984218D040F2584310E000BFA023C4F229
:10101000020398420FD0B82308E000BF40F2A0437B
:10102000C4F20203984206D040F2B843C4F202036D
:10103000984240F0C580D4E9163707F01F074045B5
:1010400002FA07F25A5019DC9F21C4F202018842C9
:1010500032DC5721C4F20201884259DC1021C4F26B
:101060000201884200F096802821C4F202018842E1
:1010700000F090804021C4F2020189E045F22F4146
:10108000C5F6020188422DDC40F2B741C4F20201EC
:1010900088424BDC40F27041C4F20201884279D0B0
:1010A00040F28841C4F20201884273D040F2A0416C
:1010B000C4F202016CE000BF40F22741C4F2020119
:1010C000884243DCA021C4F20201884262D0B821E8
:1010D000C4F2020188425DD040F21041C4F2020124
:1010E00056E000BF45F26B41C5F6020188423FDC85
:1010F00045F23041C5F6020188424BD045F24441E9
:10110000C5F60201884245D045F258413EE000BF95
:101110005821C4F2020188423CD07021C4F202017D
:10112000884237D08821C4F2020131E040F2B84150
:10113000C4F2020188422DD045F20841C5F60201F1
:10114000884227D045F21C4120E000BF40F22841F0
:10115000C4F2020188421DD040F24041C4F20201B3
:10116000884217D040F25841C4F2020110E000BF9B
:1011700045F26C41C5F6020188420BD045F294411C
:10118000C5F60201884205D045F28041C5F602014C
:1011900088420BD1616EA26EE06E4A6030B1016888
:1011A00021F480710160D4E91C014160012084F8C0
:1011B00035000020002184F83410BDE8F08100BF24
:1011C0000421012237E70000F0B190F83510022920
:1011D00018D180B540F20F420168C4F20202914278
:1011E00014DC6F23C4F20203994225DC3F23C4F2CE
:1011F000020399423CDC1023C4F2020399425DD001
:10120000282357E0802141650120704740F26F4359
:10121000C4F2020399421BDC40F23F43C4F20203D2
:1012200099422DDC40F21043C4F20203994245D0AA
:1012300040F228433EE000BF9F23C4F202039942DC
:1012400028DC7023C4F20203994237D0882331E0AE
:1012500040F29F43C4F20203994223DC40F2704300
:10126000C4F20203994229D040F2884322E000BF31
:101270004023C4F20203994220D058231AE000BF51
:1012800040F24043C4F20203994217D040F258435F
:1012900010E000BFA023C4F2020399420ED0B8238D
:1012A00008E000BF40F2B843C4F20203994205D0FF
:1012B00040F2A043C4F20203994275D191424FF02B
:1012C000040280F8352011DC6F20C4F20200814254
:1012D00022DC3F20C4F20200814239DC1020C4F23B
:1012E0000200814259D0282054E000BF40F26F40F4
:1012F000C4F2020081421BDC40F23F40C4F2020013
:1013000081422DDC40F21040C4F20200814244D000
:1013100040F228403EE000BF9F20C4F2020081421C
:1013200028DC7020C4F20200814236D0882031E0EF
:1013300040F29F40C4F20200814223DC40F2704040
:10134000C4F20200814228D040F2884022E000BF6F
:101350004020C4F2020081421FD058201AE000BF92
:1013600040F24040C4F20200814216D040F25840A0
:1013700010E000BFA020C4F2020081420DD0B820CE
:1013800008E000BF40F2B840C4F20200814204D03D
:1013900040F2A040C4F202008142086820F001003F
:1013A0000860002080BD00BF0A6822F001020A60C8
:1013B00045F25742C5F6020291420A6822F00E0237
:1013C0000A600FDC45F22F42C5F60202914219DC99
:1013D00045F20842C5F60202914229D045F21C426C
:1013E00022E000BF45F27F42C5F60202914213DCC3
:1013F00045F25842C5F60202914219D045F26C42BC
:1014000012E000BF45F23042C5F6020291420FD011
:1014100045F2444208E000BF45F29442C5F602029C
:10142000914205D045F28042C5F6020291421AD19E
:10143000D0E9181CD0E916E30A6822F480720A6029
:1014400003F01F01012202FA01F1CEF80410816EAF
:10145000CCF80410C16E31B10A6822F480720A60BF
:10146000D0E91C124A60012180F83510016D00227C
:10147000002980F8342094D08847002080BD0000E7
:10148000406D7047000000002DE9F04782B0002158
:10149000019140F2080148F2B513C2F20001C1F611
:1014A0004E33856D40F26F490A680168C4F2020943
:1014B0002E68A2FB032849452A6815DC9F22C4F246
:1014C000020291422CDC5722C4F20202914251DC0A
:1014D0001022C4F2020291427BD02822C4F20202FE
:1014E000914276D040226FE045F22F43C5F60203C9
:1014F000994229DC40F2B743C4F20203994245DC29
:1015000040F27042C4F20202914262D040F288423C
:10151000C4F2020291425CD040F2A04254E000BF0B
:1015200040F22742C4F2020291423FDCA022C4F200
:10153000020291424DD0B822C4F20202914248D038
:1015400040F2104240E000BF45F26B43C5F6020393
:10155000994275DC45F23043C5F60203994200F02A
:10156000828045F24443C5F6020399427BD045F29E
:10157000584373E05822C4F20202914229D07022EB
:10158000C4F20202914224D088221DE040F2B84306
:10159000C4F2020399421CD045F20843C5F6020387
:1015A000994260D045F21C4358E000BF40F2284207
:1015B000C4F2020291420CD040F24042C4F2020254
:1015C000914206D040F25842C4F20202914240F0E9
:1015D0005383C26D082302F01F0240F20F4A93406A
:1015E000C4F2020A334200F0DE8051454FF0040499
:1015F00012DC6F27C4F20207B9426DDC3F27C4F248
:101600000207B94200F39C801027C4F20207B942D6
:1016100000F0BD802827B5E0494569DC40F23F472E
:10162000C4F20207B94200F3938040F21047C4F2BB
:101630000207B94200F0AB8040F22847A2E000BFA9
:1016400045F26C43C5F6020399420CD045F2804343
:10165000C5F60203994206D045F29443C5F602034B
:10166000994240F009830B68C76D07F01F070426F5
:10167000BE40164218BF13F0040423D10226BE4018
:10168000164218BF13F0020442D1FA40120740F18B
:10169000F38213F0080200F0EF820A6822F00E02D3
:1016A0000A60012101FA07F26A60416580F835108D
:1016B000C16C00294FF0000280F8342040F0D8823D
:1016C000DAE200BF1A046E6034D49A0635D40A6890
:1016D00022F004020A6030E09F27C4F20207B942F8
:1016E00040DC7027C4F20207B94250D0882749E095
:1016F00040F29F47C4F20207B9423BDC40F2704718
:10170000C4F20207B94242D040F288473AE000BF33
:101710001A046E6000F1B4829A0600F1B5820A687C
:1017200022F00A020A60012180F83510002180F8B9
:101730003410A9E2D90300F1A982016C97E200BF3D
:101740004027C4F20207B94221D058271AE000BF4F
:1017500040F24047C4F20207B94218D040F258475D
:1017600010E000BFA027C4F20207B9420FD0B8278B
:1017700008E000BF40F2A047C4F20207B94206D019
:1017800040F2B847C4F20207B94218BF08240F68F4
:10179000274208D00F6827F004070F60AB60436D45
:1017A00043F0010343650123934033426FD0514519
:1017B00010DC6F27C4F20207B9421DDC3F27C4F2D8
:1017C0000207B94234DC1027C4F20207B94256D0EE
:1017D00028274FE049451BDC40F23F47C4F202078F
:1017E000B9422DDC40F21047C4F20207B94246D09C
:1017F00040F228473EE000BF9F27C4F20207B942EB
:1018000028DC7027C4F20207B94238D0882731E0BB
:1018100040F29F47C4F20207B94223DC40F270470E
:10182000C4F20207B9422AD040F2884722E000BF42
:101830004027C4F20207B94221D058271AE000BF5E
:1018400040F24047C4F20207B94218D040F258476C
:1018500010E000BFA027C4F20207B9420FD0B8279A
:1018600008E000BF40F2A047C4F20207B94206D028
:1018700040F2B847C4F20207B94240F00D824F6906
:101880003F0604D5AB60436D43F002034365042378
:10189000934033426FD0514510DC6F27C4F20207EA
:1018A000B9421DDC3F27C4F20207B94234DC1027DD
:1018B000C4F20207B94256D028274FE049451BDC45
:1018C00040F23F47C4F20207B9422DDC40F2104714
:1018D000C4F20207B94246D040F228473EE000BFBA
:1018E0009F27C4F20207B94228DC7027C4F202071E
:1018F000B94238D0882731E040F29F47C4F202074E
:10190000B94223DC40F27047C4F20207B9422AD040
:1019100040F2884722E000BF4027C4F20207B942E4
:1019200021D058271AE000BF40F24047C4F2020716
:10193000B94218D040F2584710E000BFA027C4F2C7
:101940000207B9420FD0B82708E000BF40F2A04715
:10195000C4F20207B94206D040F2B847C4F2020707
:10196000B94240F0A1810F68BF0704D5AB60436D59
:1019700043F004034365102303FA02F2324200F0FD
:10198000828051454FF0080310DC6F27C4F2020734
:10199000B9421DDC3F27C4F20207B94234DC1027EC
:1019A000C4F20207B94256D028274FE049451BDC54
:1019B00040F23F47C4F20207B9422DDC40F2104723
:1019C000C4F20207B94246D040F228473EE000BFC9
:1019D0009F27C4F20207B94228DC7027C4F202072D
:1019E000B94238D0882731E040F29F47C4F202075D
:1019F000B94223DC40F27047C4F20207B9422AD050
:101A000040F2884722E000BF4027C4F20207B942F3
:101A100021D058271AE000BF40F24047C4F2020725
:101A2000B94218D040F2584710E000BFA027C4F2D6
:101A30000207B9420FD0B82708E000BF40F2A04724
:101A4000C4F20207B94206D040F2B847C4F2020716
:101A5000B94218BF04230F681F4214D0AA600A6855
:101A600052030A6808D4D20508D40A6822F0080292
:101A70000A60016C21B906E0110351D4016C11B167
:101A8000044688472046C16D01F01F02202101FA5B
:101A900002F3334200F0AF8001681027514511DC9A
:101AA0006F26C4F20206B1421EDC3F26C4F20206D3
:101AB000B14239DC1026C4F20206B1425BD02826BE
:101AC00054E000BF49451BDC40F23F46C4F2020629
:101AD000B14231DC40F21046C4F20206B1424AD0B3
:101AE00040F2284642E000BF9F26C4F20206B142FF
:101AF0002CDC7026C4F20206B1423CD0882635E0C8
:101B000040F29F46C4F20206B14227DC40F2704622
:101B1000C4F20206B1422ED040F2884626E000BF51
:101B2000816C0029ACD1AEE74026C4F20206B14276
:101B300021D058261AE000BF40F24046C4F2020607
:101B4000B14218D040F2584610E000BFA026C4F2BF
:101B50000206B1420FD0B82608E000BF40F2A0460E
:101B6000C4F20206B14206D040F2B846C4F2020600
:101B7000B14218BF02270E683E423CD0AB6090F8DD
:101B80003530042B0B681DD123F016030B604B6915
:101B900023F080034B61036C0BB9836C1BB10B68A2
:101BA00023F008030B603F219140A960012180F8D8
:101BB0003510016D00294FF0000280F8342057D114
:101BC0005AE000BF5A030A680ED4D2050ED40A6840
:101BD00022F010020A60012180F83510002180F8FF
:101BE0003410C16B21B906E0110351D4C16B11B19E
:101BF000044688472046416D00293DD0416DC90704
:101C000034D0042180F8351001684FEA98220B681F
:101C100023F001030B60019B0133019393421AD817
:101C20000B68DB0717D0019B01330193934212D855
:101C30000B68DB070FD0019B0133019393420AD855
:101C40000B68DB0707D0019B01330193934202D855
:101C50000B68DB07DFD10968C9074FF0030108BF34
:101C6000012180F83510002180F83410C16C19B1C1
:101C700002B0BDE8F047084702B0BDE8F08700BFFA
:101C8000D90301D4416CF2E7C16BF0E7816CEEE758
:101C9000416C0029ACD1AEE70B680423934033427A
:101CA0007FF4F9AD67E600BF0B6864E60000000052
:101CB0002DE9F041044602F01BF8FCB140F26F48F8
:101CC00005462068C4F2020840451BDC9F21C4F28F
:101CD0000201884232DC5721C4F20201884259DCF9
:101CE0001021C4F20201884200F083802821C4F24E
:101CF0000201884200F07D80402175E00120BDE8AE
:101D0000F08100BF45F22F41C5F60201884229DC6F
:101D100040F2B741C4F20201884247DC40F2704110
:101D2000C4F20201884264D040F28841C4F2020148
:101D300088425ED040F2A04156E000BF40F2274109
:101D4000C4F20201884241DCA021C4F202018842AF
:101D50004FD0B821C4F2020188424AD040F210416B
:101D600042E000BF45F26B41C5F60201884200F334
:101D7000D18045F23041C5F60201884200F0DD8095
:101D800045F24441C5F60201884200F0D68045F292
:101D90005841CDE05821C4F20201884229D0702177
:101DA000C4F20201884224D088211DE040F2B841EB
:101DB000C4F2020188421CD045F20841C5F6020176
:101DC000884200F0BA8045F21C41B1E040F228415F
:101DD000C4F2020188420CD040F24041C4F2020138
:101DE000884206D040F25841C4F20201884240F0D5
:101DF0003981022184F83510002184F834100168FB
:101E000021F00101016000BF20680168C9070DD001
:101E100001F06EFF401B0628F6D3202060650320EA
:101E200084F835000120BDE8F08100BF48F23F0290
:101E300004F108060168CFF61062114065694CCEC6
:101E40001143A2691943E3693143266A0D43616A6C
:101E50002B43042943EA060343EA020303D1D4E9EE
:101E60000B652E4333436568A5F12906292E00F240
:101E70003182DFE816F02B002B002B002B002B000B
:101E80002B002F022F022F022F022F022F022F02D0
:101E90002F022F022F022F022F022F022F022F02BA
:101EA0002F022B002B002B002B002F022F022F02C2
:101EB0002F022B002B002F022F022F022F022F02A6
:101EC0002F022B002B002B002B0000BF43F48013AC
:101ED00003600429436923F0070341EA030140F04A
:101EE000DD80D4E90A53002B41EA050100F0D680D9
:101EF000B2F5005F00F0B880002A40F0C180022DEA
:101F000000F0C180012D00F0B580002D00F0BB80F5
:101F1000C4E000BF45F26C41C5F6020188420CD016
:101F200045F28041C5F60201884206D045F294414F
:101F3000C5F60201884240F0958004F1080E0221A6
:101F400084F83510002184F834100168A3699EE8F4
:101F50000450A2F18005E769B5FA85F566696D0957
:101F6000402A4FEA853543EA07026FF3101142EA2F
:101F7000060208BF102541EADC0142EA0E02236A8C
:101F8000294341EAD20141EA131140F80819C0B2CD
:101F9000CD2148433C2101EA9020E0652046FEF730
:101FA000D3FBE16D012201F01F0102FA01F1416052
:101FB0002068404500F381809F21C4F202018842DD
:101FC00014DC5721C4F20201884227DC1021C4F23C
:101FD0000201884200F0C7802821C4F20201884231
:101FE00000F0C1804021C4F20201B9E040F2274173
:101FF000C4F20201884221DCA021C4F2020188421D
:1020000000F0B180B821C4F20201884200F0AB8038
:1020100040F21041C4F20201A2E000BF5821C4F214
:102020000201884200F09F807021C4F202018842C0
:1020300000F099808821C4F2020191E040F2284129
:10204000C4F20201884200F08E8040F24041C4F2A6
:102050000201884200F0878040F25841C4F2020138
:102060007EE000BF4020D9E6032D17D8DFE805F059
:102070000E0B0E02A3F1C072B2FA82F2520904E012
:10208000032D03D30AD1C3F300623AB14020606547
:10209000012084F83500BDE8F08100BF4161204691
:1020A000FEF752FBE16D3F2201F01F0102FA01F140
:1020B0008160206840457FF77FAF45F22F41C5F62C
:1020C0000201884216DC40F2B741C4F202018842A4
:1020D00026DC40F27041C4F20201884243D040F253
:1020E0008841C4F2020188423DD040F2A041C4F2CE
:1020F000020135E045F26B41C5F6020188421FDC62
:1021000045F23041C5F6020188422CD045F24441E7
:10211000C5F60201884226D045F258411EE000BFB4
:1021200040F2B841C4F2020188421CD045F2084195
:10213000C5F60201884216D045F21C410EE000BFF0
:1021400045F26C41C5F6020188420CD045F294413B
:10215000C5F60201884206D045F28041C5F602016B
:10216000884240F0E18045F2574C45F6FC0EC5F63A
:10217000020CC5F6020E60450EDC45F22F41C5F695
:102180000201884218DC45F20841C5F60201884286
:1021900028D045F21C4121E045F27F41C5F60201FD
:1021A000884213DC45F25841C5F60201884219D035
:1021B00045F26C4112E000BF45F23041C5F6020124
:1021C00088420FD045F2444108E000BF45F29441F7
:1021D000C5F60201884205D045F28041C5F60201EC
:1021E000884247D100F0FC014CF6CD420839CCF6CC
:1021F000CC42A1FB0212AEF1FC05AEF17C06130944
:10220000A26803F01F01802A4FF0010205EB83054D
:10221000256602FA01F26666A26605D100206060BA
:10222000286072601EE000BF6368D9B25F1E072F8E
:102230002960726016D84E1E082E19D260450EF124
:10224000440237DC45F22F41C5F60201884249DCE1
:1022500045F20841C5F60201884259D045F21C41B9
:1022600052E000BF00206067C4E91B005CE000BFD3
:10227000E06E54E000F0F8014AF6AB221039CAF6DD
:10228000AA22A1FB021240F20F43C4F20203082566
:102290001109984203F1AA060B4688BF05EB1213F9
:1022A00040F60005B042C4F2020505F1800628BFE1
:1022B0000B46A5E745F27F41C5F6020188421BDCCB
:1022C00045F25841C5F60201884221D045F26C41E1
:1022D0001AE000BF25F00307742F08BF43F48013F2
:1022E000F6E500BF45F23041C5F6020188420FD045
:1022F00045F2444108E000BF45F28041C5F60201C5
:10230000884205D045F29441C5F60201884213D1B6
:102310000EEB83000121E066B14022676167002176
:102320000160D4E91C01416000206065012184F84E
:102330003510BDE8F08100BF40F60000C4F2020095
:1023400000F1FC0E00F5A072E2E7000000000000C2
:1023500030B110B590F83440012C03D1022010BDEB
:1023600001207047012480F8344090F83540012C5A
:102370002CD1022480F8354000244465D0F800C0F8
:10238000DCF8004024F00104CCF800400446FEF7DD
:102390006FFA40F20F4C2068C4F2020C40F26F4119
:1023A0006045C4F2020119DC6F23C4F202039842B3
:1023B00026DC3F23C4F2020398423DDC1023C4F222
:1023C000020398425FD0282358E000BF4FF4006119
:1023D0004165002180F83410012010BD88421BDCCB
:1023E00040F23F43C4F2020398422DDC40F2104316
:1023F000C4F20203984246D040F228433EE000BFB8
:102400009F23C4F20203984228DC7023C4F2020323
:10241000984238D0882331E040F29F43C4F202034F
:10242000984223DC40F27043C4F2020398422AD05F
:1024300040F2884322E000BF4023C4F202039842E6
:1024400021D058231AE000BF40F24043C4F20203F7
:10245000984218D040F2584310E000BFA023C4F2C5
:10246000020398420FD0B82308E000BF40F2B843FF
:10247000C4F20203984206D040F2A043C4F2020321
:10248000984240F02F8103680B2262F344030360FB
:10249000226C1AB1082302681A430260884219DCD0
:1024A0009F22C4F20202904232DC5722C4F202029E
:1024B000904259DC1022C4F20202904200F0968051
:1024C0002822C4F20202904200F090804022C4F21E
:1024D000020289E045F22F42C5F6020290422DDC4D
:1024E00040F2B742C4F2020290424BDC40F270422A
:1024F000C4F20202904279D040F28842C4F2020251
:10250000904273D040F2A042C4F202026CE000BFDD
:1025100040F22742C4F20202904243DCA022C4F2FD
:102520000202904262D0B822C4F2020290425DD010
:1025300040F21042C4F2020256E000BF45F26B4284
:10254000C5F6020290423FDC45F23042C5F6020277
:1025500090424BD045F24442C5F60202904245D02B
:1025600045F258423EE000BF5822C4F202029042B7
:102570003CD07022C4F20202904237D08822C4F2CA
:10258000020231E040F2B842C4F2020290422DD081
:1025900045F20842C5F60202904227D045F21C429D
:1025A00020E000BF40F22842C4F2020290421DD057
:1025B00040F24042C4F20202904217D040F2584228
:1025C000C4F2020210E000BF45F26C42C5F60202FE
:1025D00090420BD045F29442C5F60202904205D0DB
:1025E00045F28042C5F60202904274D1236E1A6809
:1025F000D20303D51A6842F480721A60E36E1BB1ED
:102600001A6842F480721A60604511DC6F21C4F2CE
:10261000020188421EDC3F21C4F20201884235DCFF
:102620001021C4F20201884255D0282150E000BF99
:1026300088421BDC40F23F41C4F2020188422DDC9B
:1026400040F21041C4F20201884244D040F22841D5
:102650003EE000BF9F21C4F20201884228DC7021C5
:10266000C4F20201884236D0882131E040F29F4115
:10267000C4F20201884223DC40F27041C4F202013C
:10268000884228D040F2884122E000BF4021C4F2B5
:10269000020188421FD058211AE000BF40F2404199
:1026A000C4F20201884216D040F2584110E000BF47
:1026B000A021C4F2020188420DD0B82108E000BF79
:1026C00040F2B841C4F20201884204D040F2A04175
:1026D000C4F202018842016841F00101016000205A
:1026E00010BD00BF0268052363F343020260226C41
:1026F000002A3FF4D3AE0423CDE600000000000022
:1027000090F89830013B012B0ED80068836D0B4286
:1027100012D0836D0B408B4232D1C36D43F0020364
:10272000C3658B050ED412E000F19C01012002224A
:102730000B681A430A607047C36D43F00103C36519
:102740008B0504D5D0F8E0301343C0F8E0304B05DA
:1027500004D5D0F8E4301A43C0F8E4204FF6FF72F5
:10276000436DC3F6CF720A401A4342658A0F4AF698
:1027700014010020C4F200010B681A430A6070477C
:102780000323C3658B05DDD4E1E7000000000000F2
:1027900090F89830022B1BD12DE9F0430668D6F84B
:1027A000C03013F07C5F1BD0D6F8C4309B0221D41C
:1027B000D6F8C4300C69C3F3044CD1E90035002DC0
:1027C0008D6821D023432B4343F0804E20E000BF8F
:1027D000D0F89C1041F00801C0F89C10012070470F
:1027E000D0F89C1041F02001C0F89C100120BDE8F9
:1027F000F08300BFD0F89C1041F40071C0F89C1029
:102800000120BDE8F08300BF44EA834343EA050E9C
:10281000836ED0F88450D1E907970CFB03F48B69E1
:1028200049EA0767D1F81480D1F80C901F4305EBF3
:10283000840347EA080745F824E047EA09475F6050
:10284000CF6887B14EF2B015083303320024C0F6CA
:10285000000500BF171957F8037C1F51CF680434D7
:10286000EF5DBC42F6D3012101FA0CF1C6F8D0109D
:10287000C0F894100020BDE8F083000000000000C4
:10288000704700000000000090F89830012B0FD135
:10289000012900684FEA026212D0D9B9D0F8F010CD
:1028A00021F07C511143C0F8F0100020704700BFA8
:1028B000D0F89C1041F00401C0F89C100120704732
:1028C000D0F8A01021F0FE411143C0F8A010002064
:1028D000704700BFD0F8B01021F0FE411143C0F89E
:1028E000B01000207047000090F89820013A012AAB
:1028F0000CD880B50A68002ACA680FD00B69072A6D
:1029000043EA427E18D18B691BE000BFD0F89C10CF
:1029100041F00201C0F89C1001207047072A19D12C
:102920000A69D1E906C3120442EA032242EA0C0210
:1029300042F0605218E000BFD1F808C04B6943EA8A
:102940008C73006F496800EBC10240F831E05360BE
:10295000002080BD8B68D1E904CE9B0743EAC262A8
:1029600042EA0C4242EA0E024968C06E40F8212059
:10297000002080BD0000000090F898C0BCF1010F5D
:102980000ED19200006842EA0111DDF800C041EA70
:10299000430141EA0C01C0F880100020704700BFDD
:1029A000D0F89C1041F00401C0F89C100120704741
:1029B00090F89820012A07D10068426922F0FF02AE
:1029C0001143416100207047D0F89C1041F0040190
:1029D000C0F89C100120704790B110B5044600F07B
:1029E00017FE2068C16D21F00301C165204600F08B
:1029F00027FD0020C4F89C0084F8980010BD00BF9B
:102A00000120704700000000704700000000000037
:102A1000F0B58FB040F2E417C2F200073A68904276
:102A200002D00FB0F0BD00BF6D460C460021064637
:102A3000CDE90D11CDE90B112C212846FDF7B9FD8B
:102A40000BA9304600F020F83046294600F02CF85B
:102A50003046C7E9176400F013F8009978660B98C0
:102A6000B9660C99C7E91B0197F858000599796771
:102A7000013087F858000FB0F0BD000000000000E2
:102A8000D0F89C00704700000068026CD0B208606B
:102A9000C2F30623C2F3C030C1E90130C2F30742DA
:102AA0000020CA60704700000068426C02F0070016
:102AB0000860C2F302204860C2F3803302F01800BD
:102AC0008860C2F34010C860C2F380100861C2F38E
:102AD000C0104861C2F3C0208861C2F30030C861F1
:102AE000C2F34030C1E90803C2F3064200208A6203
:102AF00070470000000000002DE9F04390F8987046
:102B0000022F17D140291FD10468274657F8A06F1C
:102B100016F4FE0F3AD0D4F8A460760640D0D4F86C
:102B2000A460D4F8A450ED01C6F3052E42D4442588
:102B3000742656E0D0F89C1041F00801C0F89C10B3
:102B40000120BDE8F08300BF412915D10668374652
:102B500057F8B05F15F4FE0F18D0D6F8B4506D06D4
:102B60001ED0D6F8B450D6F8B460F601C5F3052EE1
:102B70002AD44C25782634E0076DB94206D24FF0AE
:102B8000000C54257C268E462CE000BFD0F89C100B
:102B900041F02001C0F89C100120BDE8F08300BF87
:102BA000D0F89C1041F48071C0F89C100120BDE861
:102BB000F08300BF3E684425B6F1FF3F4FF0740636
:102BC000F4460FDC08E000BF3E684C25B6F1FF3F3D
:102BD0004FF07806F44605DC0EF101043F6804EA84
:102BE000174EF446445985590EFB04F405EB840E48
:102BF00055F8247017F08047576055F8247027F077
:102C0000604608BFC7F38A46166055F8247007F07F
:102C10000057976055F8244004F000441461BEF852
:102C20000440D461BEF8064014F00F04D460DEF80E
:102C3000044004F480145461DEF8044004F40014E9
:102C400094619EF8074004F07F041462DEF80440AB
:102C50004FEAD474546228D04EF2B0180026C0F661
:102C600000080EEB0604751C277A9F55D76818F8E4
:102C70000770BD4219D29F19657A7D70D56818F822
:102C80000590B51C4D453FBFA57ABD70D56818F8B5
:102C900005903CBFF51C4D4507D2E47A0436FC7024
:102CA000D46818F80440A642DBD3402906D1006856
:102CB000C0F8A8C00020BDE8F08300BF412905D1BD
:102CC0000068C0F8B8C00020BDE8F0831F2909D80B
:102CD0000068012202FA01F1C0F898100020BDE856
:102CE000F08300BF006801F01F01012202FA01F128
:102CF000C0F89C100020BDE8F08300000000000038
:102D000070470000000000002DE9F04F87B0044636
:102D10004AF61000C4F2000001684AF61400C4F23A
:102D20000000026820680A40D0F850B0D0F85490F3
:102D3000056D466D036D0293436D0193036D06931C
:102D4000436D0593036D0493436D0393D0F854A032
:102D5000D0F850805FEACA5311D518F480710ED0B4
:102D60004FF4807101654AF610010020C4F20001A1
:102D7000174608602046FFF7C3FF3A4620685FEA1F
:102D80004A510BEA090B4FEA827740F14B814AF630
:102D9000100918F48061C4F2000910D0D0F8DC10DA
:102DA0000092D0F8E42011404FF4806202650020C8
:102DB000C9F80000204600F007FE009A206805EAE6
:102DC00006050BF4704657B10021016502F00300BF
:102DD000C9F8000020463946FFF752FD2068DDE9BA
:102DE000012101EA020705F00F0546B10665002042
:102DF000C9F800002046314600F0EEFD206807F0DB
:102E0000F00645B105650020C9F8000020462946B6
:102E100000F0AEFB206846B106650020C9F800004E
:102E20002046314600F0D4FB20685FEA0A510CD5F9
:102E300018F4006109D04FF4006101650020C9F861
:102E40000000204600F0CCFD20685FEA8A5111D5D1
:102E500018F400710ED0D0F8D810D0F8E02011404E
:102E60004FF4007202650020C9F80000204600F00F
:102E7000AFFD20685FEA0A310CD518F4002109D0B3
:102E80004FF4002101650020C9F80000204600F041
:102E90006BFB20685FEACA310CD518F4803109D089
:102EA0004FF4803101650020C9F80000204600F091
:102EB00087FD20685FEA4A31DDE9032101EA020566
:102EC0000CD518F4802109D04FF480210165002031
:102ED000C9F80000204600F06FFD20685FEA8A31E3
:102EE000DDE9052102EA010205F060710ED518F452
:102EF00000330BD04FF4003303650023C9F80030D2
:102F0000D4F89C3043F08003C4F89C3002F0715533
:102F100039B101650020C9F800002046FFF778FDAF
:102F2000206845B105650021C9F80010D4F89C104F
:102F30002943C4F89C10A9F5016188420AD0D4F84D
:102F40009C0000286AD0204607B0BDE8F04FFFF78C
:102F50005BBD00BF606881688907F0D0016A426A82
:102F6000036A476A114003EA070202F03005D0F80D
:102F70002080D0F82490D0F820B0466A026A0692E9
:102F800011F00F01426A0592D0F824A0026A04925F
:102F900003D00162204600F003FD08EA09072DB1C5
:102FA000606829460562204600F002FD5FEA4A603B
:102FB00006EA0B0607F4C0750ED5049810F0400021
:102FC0000AD060684023C16BC26B090C02F03F025B
:102FD0000362204600F0E8FCDDE9051000EA010785
:102FE00006F4FC462DB1606829460562204600F0D3
:102FF000D3FC07F4F02036B161680E62D4F89C105F
:103000003143C4F89C10002899D061680862D4F854
:103010009C100843C4F89C0091E700BF07B0BDE8CE
:10302000F08F00BF4AF61009C4F20009002F05EA2C
:1030300006050BF470467FF4C7AED0E60000000032
:10304000F0B12DE9F04F83B04AF200080446C4F213
:1030500000080068404533D094F89810B9B38169EE
:1030600021F01001816100F043FE0546206881696E
:10307000090707D500F03CFE401B0B28F6D312E0F1
:1030800001207047816941F00101816100F030FE4B
:10309000054600BF20688169C90721D100F028FEDC
:1030A000401B0B28F6D30120D4F89C100843C4F829
:1030B0009C00032084F89800012003B0BDE8F08F45
:1030C00008F58071616094F898100029C7D100203C
:1030D00084F89900204600F0D7F92068BFE700BFC8
:1030E000816941F002018161217C826922F0400204
:1030F000012918BF40328261617C826922F48042DA
:10310000012908BF02F580428261A17C826922F414
:103110008052012918BF02F580528261816921F431
:103120004073D4E902120B438361836923F0A40343
:103130008361036923F0100303619AB1012A0DD062
:10314000022A09D08369032A43F08003836103695B
:1031500043F01002026105D1202200E004228369BD
:103160001A438261D4E90572E369561E6FF0FF02CB
:10317000256A02EB0323B1F5407F43EA4663A5F1DC
:10318000010646EA030640F20003CFF6FF7303EBA5
:10319000074746EA0701C16110D1D4E90B65D4E9BC
:1031A0000917013F02EB06226FF00F063A4306EBC8
:1031B00005173A4303EB01411143C160236E2BB164
:1031C000616ED0F8C0201143C0F8C010E16DCDE9A8
:1031D0000113D9424DF6D071C0F6000109D0D0F8E4
:1031E000C820A36E22F0070251F823301A43C0F81A
:1031F000C820D4F840C0BCF1000F09D0D0F8BC20E2
:10320000636C22F0070251F823301A43C0F8BC2047
:10321000D4F848B0BBF1000F0AD0D0F8BC20E36C62
:1032200022F0700251F8233042EA0312C0F8BC20A9
:10323000D4F850A0BAF1000F0AD0D0F8BC20636DCA
:1032400022F4E06251F8231042EA0121C0F8BC10D8
:10325000404504D161688A6822F003028A60002137
:10326000C4F89410C4F89C10012184F8981004F15B
:103270003409D0F884104FF6FC729143656C99E8DC
:103280000C02009541EA8201C0F88410D0F8841045
:1032900021F47F0141EA0341C0F884109918D0F865
:1032A00088306FF38F0343EA8103C0F88830D0F889
:1032B000883023F4FE0343EA0943C0F8883001EB69
:1032C0004903D0F8A0606FF38F0646EA8306C0F882
:1032D000A060D0F8A06026F4FE0646EA0C46C0F8CE
:1032E000A06005FB0C36D0F8B0306FF38F0343EAD3
:1032F0008603C0F8B030D0F8B03023F4FE0343EAC0
:103300000B43C0F8B030E36CD0F8AC506FF38F05CE
:1033100003FB0B6645EA8605C0F8AC50D4F8548030
:1033200008FB0A65D0F8F0606FF38F0646EA850661
:10333000C0F8F060D0F8F0E0A66D2EF47C1747EAF4
:103340000647C0F8F070F70007EB8507D0F8C050CB
:103350006FF38F052F43C0F8C070D0F8C070009D88
:10336000DDF804E027F47C1705FB0CFC4AF20005AD
:1033700047EA0E47C0F8C070C4F2000503FB0BC358
:1033800005F54067D0F8C05007EB820207EB8101DA
:1033900025F07C57029D47EA0567C0F8C07001EB35
:1033A000C90008FB0A372167A16E00EB8C0C60672F
:1033B00000EB8303E266C4E91EC30EFB01F300EBDE
:1033C00087006943C4F8800000EBC600C4F884009D
:1033D00000EB8300C4F8880000EB81004DF2FC3163
:1033E000C4F20001C4F89000884201D920205BE6B5
:1033F00082421FD21146002041F8040BD4F89030CD
:103400009942BFF45AAE506002F10801D4F89030EE
:1034100099423FBF906002F10C01D4F8903099427C
:10342000BFF44BAED0601032D4F890108A42E1D392
:1034300043E600BF002003B0BDE8F08F00000000AD
:103440004DF200410068C4F20001884218BF704785
:1034500080B544F2EC40C5F60200016821F48071A9
:10346000016040F600404FF44051C5F6020000F004
:10347000BBFA9F2000F044FDA020BDE8804000F092
:103480003FBD0000000000002DE9F041BAB0044645
:1034900006A80830B02100253595CDE93855CDE98D
:1034A0003655FDF786F84DF200412068C4F2000160
:1034B000884203D03AB0BDE8F08100BF4FF400402D
:1034C00006904FF08050219006A8079501F098FDD6
:1034D00008B1FDF755FB44F2E04040F60044C5F664
:1034E0000200C5F602044FF440580226C1680027C6
:1034F00041F48071C160C168052501F480710191BA
:103500000199016841F008010160006835A900F0E7
:103510000800019001982046CDF8D4803696CDE978
:103520003777399500F0F0FA9F200521002200F04E
:1035300013FD9F2000F0FCFCA0200521002200F0DC
:103540000BFDA02000F0F4FC032001A9CDE9040547
:1035500020460397CDE9018600F0D6FA3AB0BDE8DF
:10356000F081000000000000704700000000000033
:10357000B0B540F2E415C2F200052B68984218BFBE
:10358000B0BD05F1500405F128024021184623463C
:10359000FFF7B2FAA86A1138062807D804A151F833
:1035A00020002146BDE8B04007F05AB9B0BD00BFC9
:1035B00038090020C4090020500A0020DC0A00203D
:1035C000680B0020F40B0020800C0020000000009D
:1035D000704700000000000090F8981001290DD1FC
:1035E000022180F8981001688A6922F001028A613C
:1035F0000021C0F89C100020704700BFD0F89C103C
:1036000041F00401C0F89C10012070470000000048
:1036100090F89810022927D1016851F8182F42F02C
:1036200001020A600A68D20704BF0A685FEAC27230
:1036300022D00A6822F010020A600A68120707D531
:103640000A68120744BF0A685FEA027200F1D2807A
:103650000A6842F002020A600021C0F894100122B8
:1036600080F8982008467047D0F89C1041F0080177
:10367000C0F89C10012070470A68D20704BF0A688E
:103680005FEAC272D5D10A68D20704BF0A685FEA4E
:10369000C272CED10A68D20704BF0A685FEAC2725A
:1036A000C7D10A68D20704BF0A685FEAC272C0D1F4
:1036B0000A68D20704BF0A685FEAC272B9D10A6811
:1036C000D20704BF0A685FEAC272B2D10A68D207A1
:1036D00004BF0A685FEAC272ABD10A68D20704BFAE
:1036E0000A685FEAC272A4D10A68D20704BF0A68F6
:1036F0005FEAC2729DD10A68D20704BF0A685FEA16
:10370000C27296D10A68D20704BF0A685FEAC27221
:103710008FD10A68D20704BF0A685FEAC2727FF4D9
:1037200088AF0A68D20704BF0A685FEAC2727FF4F2
:1037300080AF0A68D20704BF0A685FEAC2727FF4EA
:1037400078AF0A68D20704BF0A685FEAC2727FF4E2
:1037500070AF0A68D20704BF0A685FEAC2727FF4DA
:1037600068AF0A68D20704BF0A685FEAC2727FF4D2
:1037700060AF0A68D20704BF0A685FEAC2727FF4CA
:1037800058AF0A68D20704BF0A685FEAC2727FF4C2
:1037900050AF0A68D20704BF0A685FEAC2727FF4BA
:1037A00048AF0A68D20704BF0A685FEAC2727FF4B2
:1037B00040AF0A68D20704BF0A685FEAC2727FF4AA
:1037C00038AF0A68D20704BF0A685FEAC2727FF4A2
:1037D00030AF0A68D20704BF0A685FEAC2727FF49A
:1037E00028AF0A68D20704BF0A685FEAC2727FF492
:1037F00020AFC3E00A68120744BF0A685FEA02729A
:103800007FF526AF0A68120744BF0A685FEA0272B2
:103810007FF51EAF0A68120744BF0A685FEA0272AA
:103820007FF516AF0A68120744BF0A685FEA0272A2
:103830007FF50EAF0A68120744BF0A685FEA02729A
:103840007FF506AF0A68120744BF0A685FEA027292
:103850007FF5FEAE0A68120744BF0A685FEA02728B
:103860007FF5F6AE0A68120744BF0A685FEA027283
:103870007FF5EEAE0A68120744BF0A685FEA02727B
:103880007FF5E6AE0A68120744BF0A685FEA027273
:103890007FF5DEAE0A68120744BF0A685FEA02726B
:1038A0007FF5D6AE0A68120744BF0A685FEA027263
:1038B0007FF5CEAE0A68120744BF0A685FEA02725B
:1038C0007FF5C6AE0A68120744BF0A685FEA027253
:1038D0007FF5BEAE0A68120744BF0A685FEA02724B
:1038E0007FF5B6AE0A68120744BF0A685FEA027243
:1038F0007FF5AEAE0A68120744BF0A685FEA02723B
:103900007FF5A6AE0A68120744BF0A685FEA027232
:103910007FF59EAE0A68120744BF0A685FEA02722A
:103920007FF596AE0A68120744BF0A685FEA027222
:103930007FF58EAE0A68120744BF0A685FEA02721A
:103940007FF586AE0A68120744BF0A685FEA027212
:103950007FF57EAE0A68120744BF0A685FEA02720A
:103960007FF576AE0A68120744BF0A685FEA027202
:103970007FF56EAE0A6812077FF56AAED0F89C102C
:1039800041F00101C0F89C10032180F8981001203B
:1039900070470000000000007047000000000000B9
:1039A00070470000000000007047000000000000A9
:1039B0007047000000000000704700000000000099
:1039C0007047000000000000704700000000000089
:1039D0007047000000000000704700000000000079
:1039E0007047000000000000002908BF70472DE963
:1039F000F04F81B000F1264242F2004302F1FF7223
:103A0000C5F602030A2598424FEAB22440F2040E9A
:103A100008BF0925082CC5F6000E38BF4FEAB225AD
:103A200000F1200C002200270024009529E000BFAF
:103A30000323066803FA02FA6FF0030303EA540350
:103A400046EA0A06066007F01C060F2505FA06F985
:103A50005CF8036026EA09064CF80360C36823EAB1
:103A60000A03C360436823EA08034360836823EAC8
:103A70000A0383600134043731FA04F302F10202CD
:103A80003CD0012303FA04F818EA0109F2D040F20D
:103A9000084324F00305C5F6000307F00C0BED58AE
:103AA0000F2303FA0BFA009B05EA0A0503FA0BF64B
:103AB000B542BDD1DEF87C504FF0B04325EA090590
:103AC000CEF87C50DEF8805025EA0905CEF880500B
:103AD000DEF8005025EA0905CEF800501E68A5085A
:103AE00026EA09061E6040F20843C5F6000353F8B3
:103AF000256026EA0A0643F8256099E701B0BDE88B
:103B0000F04F7047000000002DE9F04F85B00F68BE
:103B10000390002F00F0E680039842F2004600F187
:103B200026428C4602F1FF72C5F602060A21B04217
:103B30004FEAB22600F1200008BF09210090082EAC
:103B400038BF4FEAB221002400264FF0000801914F
:103B5000CDF808C00CE000BF08F10108DCF80070E7
:103B600037FA08F106F1020604F1040400F0BA8005
:103B7000012000FA08F217EA0209EDD0DCF804A0EF
:103B800003200AF0030B00FA06F5ABF10107012F41
:103B900012D803988768DCE902C3AF43B3403B43C4
:103BA0008360CAF30017436823EA020207FA08F3A6
:103BB0001A43426008E000BFDCF808C0BBF1030F05
:103BC00008BFBCF1010F2DD003994FEA480EE8431E
:103BD0000CFA06F3CA68BBF1020F22EA050242EAB8
:103BE0000302CA601AD183466FF0030000EA58024C
:103BF000009804F01C050F2150F802C001FA05FAE4
:103C000002992CEA0A078C460B69AB403B43835070
:103C1000D1F804A058460AF0030B0BE0DDF808C009
:103C200008E000BF4FF0030BB6460BFA06F2DDF8D2
:103C300008C0D043039B1AF4403F1A6802EA00010F
:103C40000BFA0EF241EA020119603FF485AF44F22B
:103C5000F44040F20845C5F60200C5F600050168CB
:103C600041F00201016001680F2001F0020104919E
:103C700028F00301049A04F00C024B5900FA02F7F1
:103C80000198BB4300FA02F24FF0B0401A434A5188
:103C90000168DCF8042041EA0903D70258BF21EA91
:103CA00009039702036040F20400C5F600000168B2
:103CB00041EA090358BF21EA090397030360D0F8DA
:103CC000801041EA090358BF21EA0903D203C0F872
:103CD0008030C16F41EA090358BF21EA0903C36775
:103CE0003AE700BF05B0BDE8F08F0000000000001B
:103CF00044F66060C2F200000068704700000000F7
:103D000040F2000044F66061C2F20000C2F200011D
:103D100000780A6810440860704700000000000046
:103D200080B5032000F048F902F08AF844F2184107
:103D30004EF22803C5F60201C0F600030A68C2F37A
:103D400003229A5C096801F00F0102F01F02595C1E
:103D5000D04040F20C02C2F2000201F01F0120FA32
:103D600001F1116040F20801C2F2000108600F2069
:103D700000F00AF800281CBF012080BD00F0A8F860
:103D8000002080BD000000000F2847D8B0B58AB0E1
:103D90000446362000222146002500F0DDF83620BA
:103DA00000F0C6F840F20400C2F20000046044F2E1
:103DB000E840C5F60200016841F0100101600068AA
:103DC00001A900F010000290029802A801F084FFFF
:103DD000079C002C18BF012401F0D2FF4DF683612F
:103DE000A040C4F21B3141F20002A0FB010140F6E9
:103DF0005800C2F200004FF0FF33C4F2000202602C
:103E000003EB9141C0E9011540F2E731C0E9031528
:103E100002F04AFB20B101200AB0B0BD012070477A
:103E200040F65800C2F2000002F072FB0AB0B0BDCA
:103E300010B54EF6A05E4378CEF2000E90F800C0AA
:103E40004EF8083CDEF8003023F00103CEF80030D5
:103E500043684EF8043C037BC27A817A447B1206A5
:103E600042EA0372837B42EAC141C27B41EA844158
:103E7000447A41EA4341007A41EA024141EA04219D
:103E800041EA400040EA0C00CEF8000010BD0000FE
:103E90004EF62450CEF20000BFF35F8F016821F48C
:103EA00080310160002101677047000000000000C0
:103EB0004EF6245140F00100CEF200010867086878
:103EC00040F480300860BFF34F8FBFF36F8F7047AF
:103ED00081B044F2F4400022C5F60200016841F0CE
:103EE0000201016000680F2100F0020000906FF0F5
:103EF0000100009B01B000F02FB80000000000009E
:103F0000002848BF70474EF2801300F01F01C0F335
:103F10004A10CEF20003012202FA01F143F8201008
:103F2000BFF34F8FBFF36F8F70470000000000009A
:103F3000002848BF704700F01F01012202FA01F17A
:103F40004EF20012C0F34A10CEF2000242F82010E6
:103F5000704700000000000070B54EF60C5C4FF09A
:103F6000FF36CEF2000C00F1604505F56445DCF843
:103F70000030C3F3022E8EF00703042B28BF042366
:103F8000BEF1030406FA03F321EA030100F00F0374
:103F900038BF0024043B0028634406FA04F048BFFD
:103FA00003F10C05A14022EA00000843000128703B
:103FB00070BD0000000000004EF60C514FF6FF03EC
:103FC000CEF200010A681A4060F30A2242F08060D3
:103FD00040F0FD700860704706F092FF000000009E
:103FE0007047000000000000D0F8E00404F0B0BF0B
:103FF00001EBC10200EB8202D0F8E004126A04F087
:104000000BBF00000000000001EBC10200EB8202C8
:10401000D0F8E004D2F8602204F05ABF000000009B
:10402000D0F8E00404F098BFB0B5027901F00F03B6
:10403000934201D90120B0BD4AB24FF41574002A51
:1040400003EBC30E48BF1424C909021990F8944425
:1040500002EB8E0C012C4FF000048CF801108CF850
:10406000024002F82E3001D10220B0BD012180F8BB
:104070009414016805460846614605F005FC204693
:1040800085F89444B0BD000010B54FFA81FE01F0F0
:104090000F0C6FF3DF22BEF1000F0CEBCC0123D429
:1040A00000EB810E00218EF855120EF515718EF879
:1040B00054C2CEF85C228EF85832022B01D1002275
:1040C0004A7190F89424012A02D1022010BD00BF49
:1040D000012280F8942402680446104605F050FB43
:1040E000002084F8940410BD00EB81014FF0010E14
:1040F00001F814CF81F801E08A600B71A1F81AC0B1
:10410000022BDCD0DDE7000080B501F00F0C0CEBDA
:10411000CC0100EB810E0021CEE998238379CEF803
:1041200068128EF855120EF51571012B8EF854C2D7
:1041300008BFCA6100681A4605F0F2FB002080BD86
:10414000B0B5027901F00F0494424FF001022BD870
:104150004BB24FEAD11C002B4FF4157548BF2146D6
:1041600048BF142590F894E401EBC1030544BEF167
:10417000010F05EB830105F8234081F801C08A7027
:1041800002D10220B0BD00BF80F89424054600682B
:1041900005F0A6FB2CB9A979286805F29C4205F028
:1041A00043FB002285F894241046B0BD00000000B7
:1041B00080B501F00F0C90F806E00CEBCC01BEF1DD
:1041C000010F00EB810101F814CF4FF0000C0B61DF
:1041D0004FF00103CA60C1F814C04B7008BFCA6138
:1041E0000068724605F09CFB002080BD00000000C6
:1041F0002DE9F04F87B005688246284605F040FE5D
:1042000010B107B0BDE8F08FDAF8000005F068FEE5
:104210000028F6D0D5F80808C0F30D20CAF8D40459
:10422000DAF8000005F05CFE8007DAF8000003D53C
:10423000416901F00201416105F50061059105F058
:104240004FFEC006DAF80000069535D5816921F0E9
:10425000100181612C6A04F00F0000EBC001C4F36F
:1042600043400AEB8101062801F5157512D002289A
:104270001BD147F6F07014EA000616D03409E9683D
:104280000698224605F030FEE86800EB1610E8605C
:1042900008E000BF0AF29C410822069805F024FEBF
:1042A000C4F30A14686920446861DAF8000081697F
:1042B00041F010018161069D05F012FE000340F1FE
:1042C000F980DAF8000005F0E7FD002800F0F28040
:1042D00006464FF4306800244FF0000B0AF29C4071
:1042E000049008E00BF1010B760808F1200804F1B6
:1042F000240400F0DF80F007F4D05FFA8BF9DAF8DD
:104300000000494605F0E4FD0746C00761D005EB13
:10431000080001218160DAF8000008EB0001036C5D
:104320008A689AF80650012D26D1150734D49506CF
:1043300000F1B88043F20B05C4F65475AB42069DFC
:1043400002D312F4004231D10AEB0402D2F87432E3
:1043500009696FF3DF41A3EB0101C2F86812A4BB46
:10436000D2F86432002B00F0A380D2F86002084437
:10437000C2F8600229E000BF43F20B05C4F6547591
:10438000FF35AB4218D11004069D0FD490061CD502
:104390002020886019E000BF43F20B00069DC4F6A0
:1043A0005470834215D312F4004012D04FF40040F1
:1043B000886038070FD43DE0069D34B9DAF86412FE
:1043C00019B90021049A05F02FFA50464946FFF723
:1043D0001BFE38072ED505EB08000821816043F24B
:1043E0000B01DAF80000C4F65471056C40448D42AC
:1043F00081680BD311F4004108D04FF40041816073
:10440000504600F075FC069D0AE000BF504600F0E3
:104410006FFC43F20B00C4F654708542069D09D32D
:104420009AF80600012805D1DAF800000121049A63
:1044300005F0FAF9F80607D4B8070BD4B80624D467
:10444000B8047FF54FAF27E005EB0800102181602D
:10445000B807F3D56869000604D50599486840F4A3
:10446000806048600AEB040090F85712012906D1D9
:10447000002180F857125046494600F001FC05EB38
:10448000080002218160B806DAD505EB080020217A
:104490008160B8047FF526AF05EB08004FF40051AA
:1044A00081601FE720208860069D380793D4C1E70C
:1044B000012187E7DAF8000005F012FD400340F122
:1044C000E180DAF8000005F0DFFC002800F0DA8077
:1044D0000646069800F5106900250AF114000490BC
:1044E0000AF29C400290CDF80C9004E0760805F1A9
:1044F000010500F0C780F007F8D0EFB2DAF800004D
:10450000394605F0D1FC0446C0070BD1200735D44D
:10451000E00639D460063DD4A00741D42006E5D595
:1045200058E000BF059B05F00F004FF0010C09EBB0
:1045300045120CFA00F0596B21EA00005863C2F8EA
:1045400008C09AF80600012812D105EBC5000499AD
:1045500001EB8000D0E902121144C16045B9006945
:1045600030B9DAF800000121029A05F05DF900BFC8
:1045700050463946FFF73CFD2007C9D509EB4510E9
:1045800008218160E006C5D509EB45101021816046
:104590006006C1D509EB451040218160A007BDD55B
:1045A0000698294605F0FCFB05EBC500049901EBD4
:1045B000800010F8031F012905D100210170504629
:1045C000394600F059FB09EB4510022181602006B5
:1045D0007FF58CAF05EBC500049901EB8008D8E9A5
:1045E00004108142FFF482AFDAF800400A1AD8F8CA
:1045F00008309A4238BF134604EB451203F1030C0E
:10460000D2F818399BB2B3EB9C0F2BD302F510698B
:10461000D8F81010814223D9081A9AF80620D8E950
:1046200002B1584538BF8346009220461FFA8BF3EB
:104630003A4605F051FDD8F80C00D8F8141058444B
:10464000C8F80C0001EB0B00C8F814000BF10301D3
:10465000D9F8182092B2B2EB910FD9D2D8F8101035
:10466000DDF80C9081423FF641AF05F00F000121CB
:1046700001FA00F0D4F8341821EA0000C4F8340834
:1046800034E700BFDAF8000005F02AFC00280DD45A
:10469000DAF80000069D05F023FC000526D4DAF8C0
:1046A000000005F01DFC000131D43CE0059948688C
:1046B00020F0010048609AF8CC04012808D10020BD
:1046C0008AF8CC0400215046FFF78AFC03E000BFC3
:1046D000504600F0F1FADAF80000069D416901F059
:1046E0000041416105F0FCFB0005D8D505988068C4
:1046F000C00702D0504600F003FBDAF80000416921
:1047000001F40061416105F0EBFB00010BD5DAF823
:104710000000416901F0006141619AF8CC1499B13F
:10472000504600F0EDFADAF8000005F0D9FBC004BD
:104730001BD4DAF8000005F0D3FB8004DAF800009F
:1047400000F10E8127E100BF01218AF8CC14406DF1
:10475000C0F38300CAF8D0045046FFF741FCDAF8F2
:10476000000005F0BDFBC004E3D50599486820F0C2
:1047700001004860DAF80000102105F011FB9AF8FA
:104780000400010600F0BB80C1B200F00300042960
:1047900002D2002167E000BF6FF06002002302EA4E
:1047A00041124FF67F370021EE1880339A4201F113
:1047B0000401C6F80879D6F8005925F40015C6F8A2
:1047C0000059C6F8087BD6F8005B25F40015C6F83A
:1047D000005BD6F8005B45F00065C6F8005BC6F8E4
:1047E0002879D6F8205925F40015C6F82059C6F8BE
:1047F000287BD6F8205B25F40015C6F8205BD6F898
:10480000205B45F00065C6F8205BC6F84879D6F80D
:10481000405925F40015C6F84059C6F8487BD6F82B
:10482000405B25F40015C6F8405BD6F8405B45F0C8
:104830000065C6F8405BC6F86879D6F8605925F47B
:104840000015C6F86059C6F8687BD6F8605B25F499
:104850000015C6F8605BD6F8605B45F00065C6F8E9
:10486000605B069DA0D1002849D005F5106305F5D1
:10487000306203EB41164FF67F374D010128B760D8
:1048800002EB41145E5926F400165E51A76056599A
:1048900026F400165651565946F000665651069DAC
:1048A0002DD04E1C02284FEA461403EB461502EBAE
:1048B0004616AF601D5925F400151D51069DB760C1
:1048C000175927F400171751175947F00060105176
:1048D00015D0881C4FF67F36470103EB401102EBE1
:1048E00040108E60D95921F40011D9518660D059F9
:1048F00020F40010D051D05940F00060D051059FF5
:1049000084214422F86940F00110F8619AF80F0000
:1049100000284FF00B0008BF142104BF42F22B0007
:1049200010227B5818437850B85840F00B00B8500C
:1049300038680AF29C4220F4FE6038609AF806104B
:10494000DAF8000004F070FFDAF80000416901F4C1
:104950008051416105F0C4FA8004DAF800001AD5EC
:1049600004F052FFDAF8000005F07AFA8AF807003E
:10497000DAF8004001F0DCF99AF8072001462046F9
:1049800005F01EFB504600F07FF9DAF8000041699F
:1049900001F40051416105F0A3FA000706D4DAF8EA
:1049A000000005F09DFA00060ED4BCE0504600F071
:1049B00087F9DAF80000416901F00801416105F06A
:1049C0008FFA000640F1AF80A86920F08000A8614E
:1049D0009AF80400C1B20229C0F0A5804FF0FF315F
:1049E0006FF0010252FA80F251FA80F1032A01F0CD
:1049F000030001D201215BE00AF27B2721F00301D1
:104A000005F5386300223E4605E000BF04328033DE
:104A1000914237464AD016F8905B012D0CD097F89A
:104A20002450012D18D097F84850012D24D097F824
:104A30006C70012FEAD12FE053F8605C45F00065FF
:104A400043F8605C53F8605C45F0804543F8605C77
:104A500097F82450012DE6D153F8405C45F00065ED
:104A600043F8405C53F8405C45F0804543F8405CB7
:104A700097F84850012DDAD153F8205C45F00065D5
:104A800043F8205C53F8205C45F0804543F8205CF7
:104A900097F86C70012FB9D11F6847F000671F604D
:104AA0001F6847F080471F60B0E700BF511C069D9C
:104AB000C8B301EBC1020AF5157303EB8202D27889
:104AC000012A05F5306208D14F01D65946F000663B
:104AD000D651D65946F08046D651012823D04F1CD6
:104AE00007EBC70603EB8606F678012E08D17F0197
:104AF000D65946F00066D651D65946F08046D65172
:104B0000022810D0881C00EBC00103EB8101C9789A
:104B1000012908D14001115841F00061115011588C
:104B200041F080411150DAF8000005F0D9F9C002D7
:104B30004CD4DAF8000005F0D3F9800240F17E8011
:104B40009AF80410022928D305F5326001390AF5D4
:104B50001F72012306E000BF013900F1200002F1BD
:104B600024021AD007681678012EF5D1B7F1FF3F5D
:104B7000F2DCDAF8D46486EA1747FF07ECD102F8D2
:104B8000013CAF6947F08007AF616F693F06E3D42E
:104B90000599486840F400704860DAF800004169FF
:104BA00001F40011416105F09BF940004CD55046DD
:104BB000FFF71AFADAF80000416901F0804141611B
:104BC00005F08EF940077FF51CAB44E09AF804002D
:104BD000022827D306990AF1140401F512650AF197
:104BE0003B064FF00108012706E000BF01372035E2
:104BF000874206F1240615D229687278012AF5D178
:104C0000B1F1FF3FF2DC07F00F0086F8008000EB07
:104C1000C00004EB8001DAF8000004F0A5FF9AF868
:104C20000400E3E7DAF80000416901F48011416112
:104C3000069D05F055F980023FF582AFDAF80000D5
:104C400005F04EF94000B2D4DAF8000005F048F95A
:104C500040077FF5D6AADAF800004468610704D55A
:104C60005046FFF7DDF9DAF8000041682143416062
:104C700007B0BDE8F08F0000D0F8E00404F094B96C
:104C8000D0F8E00404F0A8B910B50446C07928B102
:104C9000022801D0FBF774FF012100E00021D4F8C5
:104CA000E00404F029FAD4F8E004BDE8104004F070
:104CB000D3B9000000000000D0F8E00404F000BA0E
:104CC000D0F8E00404F008BA90F89424012A01D145
:104CD0000220704710B5012280F8942441740446E4
:104CE0000268104605F058F9002084F8940410BDBD
:104CF000D0F8E02400F29C41104604F015BA000000
:104D000010B50446D0F8E00404F056FA2068D0F854
:104D1000001E41F00101C0F8001EE07A002808BF23
:104D200010BD4EF61050CEF20000016841F00601B1
:104D3000016010BD00000000B0B544F60C05C5F6DA
:104D4000020529684907296806D401F00701081AF5
:104D500018BF0120B0BD00BF21F007010843286043
:104D6000FEF7C6FF044600BF55F8080C800407D4C0
:104D7000FEF7BEFF001BB0F57A7FF5D90120B0BD6C
:104D80000020B0BD0000000080B500F0D1FF44F26B
:104D900020414EF22802C5F60201C0F60002096861
:104DA000C1F30211515C01F01F01C84080BD000039
:104DB00080B544F2384EC5F6020E5EF8103C5EF83F
:104DC000101C5EF80C2CC1F3053CDEF80410BCF19D
:104DD000000F19D0C9089FED3C1AD20601EAE27112
:104DE00003F003026FF35F3100EE101AB8EE400AD1
:104DF000DFE802F0022210225EF8381C89060DD48A
:104E00009FED331A18E000BF00218160C0E9001156
:104E100080BD00BF9FED2D1A0EE000BF5EF8381C6C
:104E200049F20002C0F2D032C1F3C10122FA01F10D
:104E300001EE101AB8EE411ADEF800109FED253A87
:104E40006FF35F2102EE101ADEF80010C1F3462165
:104E5000B8EE422A013100EE032A00EE10CAB7EE86
:104E6000003AB8EE400A81EE000A32EE031A20EE54
:104E7000010A01EE101AB8EE411A80EE011ABCEEDA
:104E8000C11A80ED001ADEF80010C1F306410131AD
:104E900001EE101AB8EE411A80EE011ABCEEC11AEA
:104EA00080ED011ADEF80010C1F30661013101EE58
:104EB000101AB8EE411A80EE010ABCEEC00A10EEDC
:104EC000101A816080BD00BF0024744A001BB74BDC
:104ED0000024744C0000003980B544F2404EC5F601
:104EE000020E5EF8183C5EF8181C5EF8142CC1F334
:104EF000055CDEF80410BCF1000F19D0C9089FED65
:104F00003C1AD20501EAE27103F003026FF35F314C
:104F100000EE101AB8EE400ADFE802F0022210227A
:104F20005EF8401C89060DD49FED331A18E000BFCF
:104F300000218160C0E9001180BD00BF9FED2D1AE6
:104F40000EE000BF5EF8401C49F20002C0F2D03211
:104F5000C1F3C10122FA01F101EE101AB8EE411AB3
:104F6000DEF800109FED253A6FF35F2102EE101A74
:104F7000DEF80010C1F34621B8EE422A013100EEFE
:104F8000032A00EE10CAB7EE003AB8EE400A81EEEE
:104F9000000A32EE031A20EE010A01EE101AB8EEF2
:104FA000411A80EE011ABCEEC11A80ED001ADEF83B
:104FB0000010C1F30641013101EE101AB8EE411A9A
:104FC00080EE011ABCEEC11A80ED011ADEF8001065
:104FD000C1F30661013101EE101AB8EE411A80EEFC
:104FE000010ABCEEC00A10EE101A816080BD00BF3D
:104FF0000024744A001BB74B0024744C0000003995
:105000002DE9F0470446C07844F22C480007C5F665
:10501000020828D5606E4FEA305103292AD8DFE80C
:1050200001F0030B131B00BFD8F8001041F400314E
:10503000C8F8001010E000BF04F10800022102F0DF
:1050400003FB064680B906E004F12800022102F0C5
:105050008FFB064640B9606ED8F8241021F4401149
:105060000843C8F8240000266078C00706D13546FA
:105070002FE000BF01266078C007F8D0A06D04289B
:105080003ED83546DFE800F004140E0B0B0000BFDD
:10509000D8F80000354640F40030C8F800002F462C
:1050A000C5B90DE004F12800002102F061FB04E025
:1050B00004F10800002102F0C7FA05462F464DB959
:1050C000D8F82400A16D20F0070000250843C8F897
:1050D00024003746607840073AD5D4F8A4004FEA58
:1050E0007050052818D8DFE800F0031D1123232392
:1050F000D8F8000040F40030C8F8000018E000BF05
:105100000125012760784007E7D421E004F1280059
:10511000002102F02DFB0AE001250126607800073E
:105120001AD44FE004F10800002102F08DFA054680
:105130002E461DB1607800070ED443E0D8F82C004D
:10514000D4F8A41020F4600000250843C8F82C000F
:105150003E466078000735D5D4F8A8004FEA3060A5
:10516000052813D8DFE800F004180C1E1E1E00BF2F
:10517000D8F8000040F40030C8F8000012E000BF8A
:1051800004F12800002102F0F3FA0AE001250127CA
:10519000E07880071AD434E004F10800002102F01E
:1051A00053FA05462F461DB1E07880070ED428E05B
:1051B000D8F82C00D4F8A81020F0E06000250843AF
:1051C000C8F82C003746E07880071AD5E06C4FEA23
:1051D0003010032838D8DFE800F009032D0900BF9C
:1051E000D8F8000040F40030C8F800002E464DB951
:1051F000D8F82000E16C20F0300000250843C8F802
:1052000020003E466078C00639D5E06D4FEA303068
:10521000042847D8DFE800F004221C0A0A0000BF77
:10522000D8F8000040F40030C8F800002F463DBB1D
:105230001CE000BF04F10800022102F005FA054657
:10524000002D2E46DED1D3E701250126DAE700BF87
:1052500004F12800002102F08BFA04E004F10800B8
:10526000002102F0F1F905462F464DB9D8F8240087
:10527000E16D20F4E04000250843C8F824003746DB
:105280006078800635D5206E4FEA3040052815D865
:10529000DFE800F0041A0E04040400BF2E46DDB956
:1052A0001EE000BF0125012760788006EBD420E0D6
:1052B00004F12800012102F05BFA0AE00125012631
:1052C0006078400619D449E004F10800012102F099
:1052D000BBF905462E461DB1607840060DD43DE071
:1052E000D8F82400216E20F4E02000250843C8F8F7
:1052F00024003E466078400630D5D4F8AC004FEA32
:10530000307005280ED8DFE800F00313070303030D
:105310002F46ADB918E000BF04F12800012102F0CA
:1053200027FA0AE001250127607800061AD43CE03C
:1053300004F10800012102F087F905462F461DB14E
:10534000607800060ED430E0D8F82C00D4F8AC1009
:1053500020F0E04000250843C8F82C00374660786C
:10536000000622D5E06E58B1B0F1005F0CD0B0F16C
:10537000805F37D1D8F8000040F40030C8F8000052
:105380002E469DB908E000BF04F10800012102F09B
:105390005BF905462E464DB9D8F82400E16E20F0A1
:1053A000405000250843C8F824003E46E078C00776
:1053B0001DD0A06C032855D8DFE800F008024A0889
:1053C000D8F8000040F40030C8F80000A9467DB9C4
:1053D000D8F82000A16C20F0030000250843C8F88D
:1053E000200004E001250126E078C007E1D1B146A4
:1053F000A078400602D44F4618E000BFD8F8D40386
:1054000040F48070C8F8D403FEF772FC064600BF73
:10541000D8F8D403C00507D4FEF76AFC801B6428C3
:10542000F6D90325032701E02F46FDB12078C007F8
:1054300000F06F80A06F4FEAF00005284ED8DFE83B
:1054400000F0035347030303002D2E4654D157E0C9
:1054500004F10800022102F0F7F80546002DA946E4
:10546000C6D1B5E701254FF00109C1E7D8F84410CE
:10547000D4F8B000414011F4407F11D0D8F8441066
:10548000D8F8442042F48032C8F84420D8F84420A8
:1054900021F4407122F48032C8F84420C8F8441046
:1054A000B0F5807F40F0D082FEF722FC064641F244
:1054B000883A0325032700BFD8F84400800700F18D
:1054C000C182FEF715FC801B5045F5D9AEE700BF41
:1054D00004F12800012102F04BF90AE00125012620
:1054E0002078800719D446E004F10800012102F079
:1054F000ABF805462E461DB1207880070DD43AE062
:10550000D8F82800A16F20F0380000250843C8F81B
:1055100028003E46207880072DD5606F05280FD8DB
:10552000DFE800F004140804040400BF2F46ADB9FE
:1055300018E000BF04F12800012102F019F90AE087
:10554000012501272078400719D447E004F108001D
:10555000012102F079F805462F461DB12078400759
:105560000DD43BE0D8F82800616F20F0070000253B
:105570000843C8F828003746207840072ED5D4F8CD
:10558000900005280ED8DFE800F00313070303039B
:105590002E46ADB918E000BF04F12800012102F049
:1055A000E7F80AE001250126207880061AD44BE0AE
:1055B00004F10800012102F047F805462E461DB10E
:1055C000207880060ED43FE0D8F82C00D4F8901054
:1055D00020F0070000250843C8F82C003E4620783C
:1055E000800631D5D4F88C004FEA307005280FD8EA
:1055F000DFE800F004140804040400BF2F46ADB92E
:1056000018E000BF04F12800022102F0B1F80AE01E
:1056100001250127207840061AD44BE004F1080048
:10562000002102F011F805462F461DB120784006F2
:105630000ED43FE0D8F82800D4F88C1020F0E040D9
:1056400000250843C8F8280037462078400631D5A1
:10565000D4F898004FEAB02005280FD8DFE800F012
:1056600004140804040400BF2E46ADB918E000BFBE
:1056700004F12800022102F07BF80AE0012501264E
:10568000207800061AD44EE004F10800002101F051
:10569000DBFF05462E461DB1207800060ED442E001
:1056A000D8F82C00D4F8981020F4E05000250843D6
:1056B000C8F82C003E462078000634D5D4F89C006B
:1056C0004FEA7030052815D8DFE800F0041A0E0400
:1056D000040400BF2F46E5B12068010727D4C106A6
:1056E0003ED4000355D477E004F12800022102F0F3
:1056F0003FF80AE00125012720680107EFD516E0F1
:1057000004F10800002101F09FFF0546002D2F46FF
:10571000E2D1D8F82C00D4F89C1020F46040002589
:105720000843C8F82C00374620680107D7D5D4F8BD
:105730008000B0F5805F09D104F12800022102F059
:1057400017F8002818BF0127D4F88000D8F82810CF
:1057500021F440510843C8F828002068C106C0D58C
:10576000D4F89400B0F5807F09D104F1280002211B
:1057700001F0FEFF002818BF0127D4F89400D8F8E4
:105780002C1021F440710843C8F82C002068000355
:1057900022D5D4F8A000B0F5003F11D0B0F5803F7D
:1057A00008D0002844D104F10800002101F04CFF8A
:1057B00005E000BF04F12800022101F0D9FF0546F1
:1057C0002E4655B9D8F82C00D4F8A01020F440305B
:1057D00000250843C8F82C003E46A07840072CD589
:1057E000D4F88400B0F5401F0BD0B0F5001F0BD0EB
:1057F000B0F5801F2AD1D8F8000040F40030C8F876
:1058000000002F46D5B907E004F12800012101F07E
:10581000AFFF05462F468DB9D8F82800D4F884107C
:1058200020F4401000250843C8F8280005E000BF18
:1058300001250126A0784007D2D43746A078C007BA
:1058400009D13E462168880015D532E0012501279F
:10585000A078C007F5D0206DB0F5803F10D018BB00
:10586000D8F8000040F40030C8F800002E4685B19A
:10587000216888001DD460688A0326D465E000BFD3
:1058800004F10800022101F0DFFE0546002D2E463E
:10589000EED1D8F82000216D20F480300025084397
:1058A000C8F82000CDE700BF012501262168880047
:1058B000E1D504F12800022101F05AFF002818BFA9
:1058C0000126D4E900108A033FD5E26F6FF001038F
:1058D00003EB3223022B0BD34FEA322343B1012BCC
:1058E00040F0AA80D8F8003043F40033C8F8003004
:1058F00025B3CA022CD48A0234D44A003CD4CA0F3D
:1059000049D1090251D4C1075AD1810763D4410753
:105910006CD4010776D4C10600F18080800607D5DB
:1059200004F12800022101F023FF002818BF0125FF
:10593000002D18BF01252846BDE8F087D8F828308B
:1059400023F440731A43C8F828203546CA02D2D53A
:10595000D8F82420236F22F000421A43C8F82420EC
:105960008A02CAD5D8F82420A36E22F080721A4386
:10597000C8F824204A00C2D558F81C2C22F4004252
:1059800048F81C2CD4F8B42058F81C3C1A4348F8AA
:105990001C2CCA0FB5D0D8F82020636D22F04052DD
:1059A0001A43C8F820200902ADD5D8F82810D4F839
:1059B000882021F440011143C8F82810C107A4D061
:1059C00004F10800002101F03FFE002818BF054641
:1059D000606881079BD504F10800012101F034FEC5
:1059E000002818BF05466068410792D504F10800F9
:1059F000022101F029FE002818BF05466068010752
:105A00007FF589AF04F12800002101F0B1FE0028E4
:105A100018BF05466068C1067FF580AF04F1280015
:105A2000012101F0A5FE002818BF05466068800628
:105A30003FF576AF7CE700BF0125CA027FF55BAF7B
:105A400086E700BFD4F8B0004FF6CF7358F81C2C8F
:105A5000C0F2FF0300F4407122F47C5203EA1013F9
:105A60006FF31F30B1F5407F08BF1A43002548F897
:105A70001C2CD8F844100843C8F84400FFF7BBBCFE
:105A80002DE9F04381B0002800F0208142F20009A6
:105A90000446C5F20029D9F8000000F00F00814249
:105AA0000DD9D9F8000020F00F000843C9F8000014
:105AB000D9F8000000F00F00884240F0078120680C
:105AC00044F218464207C5F602060AD52269336831
:105AD00003F070039A4204D9336823F070031A4329
